S01E00004169726C6162314D6963726F6368697053747564696F2E7372656374
S11300000C949C020C94C2020C94C2020C94C20282
S11300100C94C2020C94C2020C94C2020C94C2024C
S11300200C94C2020C94C2020C94C2020C94C2023C
S11300300C94C2020C94C2020C94170D0C94C202CC
S11300400C94C2020C94C2020C94C2020C94C2021C
S11300500C94C2020C94C2020C94C2020C94C2020C
S11300600C94C2020C94C2020C94C2020C94C202FC
S11300700C94C2020C94C2020C94C2020C94C202EC
S11300800C94C2020C94C2020C94C2020C94C202DC
S11300900C94C2020C94C2020C94C2020C94C202CC
S11300A00C94C2020C94C2020C94C2020C94C202BC
S11300B00C94C2020C94C2020C94CC270C94C2027D
S11300C00C94C2020C94C2020C94C2020C94C2029C
S11300D00C94C2020C94C2020C94C2020C94C2028C
S11300E00C94C2020C94C2020C94C0260C94C2025A
S11300F00C941F270C94C2020C94C2020C94C202EA
S11301000C94C2020C94C2020C94C2020C94C2025B
S11301100C94C2020C94C2020C94C2020C94C2024B
S11301200C94C2020C94C2020C94C2020C94C2023B
S11301300C94C2020C94C2020C94C2020C94C2022B
S11301400C94C2020C94C2020C94C2020C94C2021B
S11301500C94C2020C94C2020C94C2020C94C2020B
S11301600C94C2020C94C2020C94C2020C94C202FB
S11301700C94C2020C94C2020C94C2020C94C202EB
S11301800C94C2020C94C2020C94C2020C94C202DB
S11301900C94C2020C94C2020C94C2020C94C202CB
S11301A00C94C2020C94C2020C94C2020C94C202BB
S11301B00C94C2020C94C2020C94C2020C94C202AB
S11301C00C94C2020C94C2020C94C2020C94C2029B
S11301D00C94C2020C94C2020C94C2020C94C2028B
S11301E00C94C2020C94C2020C94C2020C94C2027B
S11301F00C94C2020C94C2020C94C202AC0DB41052
S1130200F91155148A1F8A1F741688168A1F8A1FAB
S11302108A1F8A1F8A1F8A1F8A1F8A1F8A1F8A1F92
S11302208A1F8A1F8A1F8A1F8A1F8A1F8A1F8A1F82
S11302308A1F8A1F8A1F8A1F8A1F8A1F8A1F8A1F72
S11302408A1F8A1F8A1F8A1F8A1F8A1F8A1F8A1F62
S11302508A1F8A1F8A1F8A1F8A1F8A1F8A1F8A1F52
S11302608A1F8A1F8A1F8A1F8A1F8A1F8A1F8A1F42
S11302708A1F8A1F8A1F8A1F8A1F8A1F8A1F8A1F32
S11302808A1F8A1F8A1F8A1F8A1F8A1F8A1F8A1F22
S11302908A1F8A1F8A1F8A1F8A1F8A1F8A1F8A1F12
S11302A08A1F8A1F8A1F8A1F8A1F8A1F8A1F8A1F02
S11302B08A1F8A1F8A1F8A1F8A1F8A1F8A1F8A1FF2
S11302C08A1F8A1F8A1F8A1F8A1F8A1F8A1F8A1FE2
S11302D08A1F8A1F8A1F8A1F8A1F8A1F8A1F8A1FD2
S11302E08A1F8A1F8A1F8A1F8A1F8A1F8A1F8A1FC2
S11302F08A1F8A1F8A1F8A1F8A1F8A1F0D172F1899
S11303001C1B281C5C1BF01C691DAD1DF21E4F122A
S11303105C125C124F124F125C125C124F126A1282
S11303206A124F124F124F124F126A126A124F1270
S11303306A126A124F126A124F124F124F124F1260
S11303404F12771277127712771277127712771289
S1130350A112A112A11283128B129C129F129F123E
S11303609F129F129F129F12A11286128612771259
S1130370771277127712771277127712A112A112DD
S1130380A11283128B129C129F129F129F129F1212
S11303909F129F12A1128612861277127712771279
S11303A07712771277127712A112A112A112831277
S11303B099129C129F129F129F129F129F129F12BA
S11303C0A11286128612D624ED24A426A426A426DD
S11303D0A426A426A426A426A426A426A426A426C9
S11303E0A426A426A426042508250B2512252A259F
S11303F0A426C625A426A426A426A426A426A42688
S1130400A426A426A426A426A426A426A426A42698
S1130410A426A426A426A426A426A426A426A42688
S1130420A426A426A426A426A426A4265F258325E0
S1130430A325A426A426A426A4263C25A426A426D3
S1130440A426A426A426A426A426A426A426A42658
S1130450A426A426A426A426A426A426A426A42648
S1130460A426A426A426A426A426A426A426A42638
S1130470A426A426A426A426A426A426A426A42628
S1130480A426A426A4263926522685260C94392689
S11304900C94F21E0C9455140C94D6240C946A12E9
S11304A00C94691D0C9408250C944F120C94B410F0
S11304B00C94A3250C94A4260C9452260C945C1B37
S11304C00C942F180C942A250C9486120C94122543
S11304D00C94ED240C9488160C9477120C948325B8
S11304E00C9483120C94281C0C945C120C941C1B0A
S11304F00C9485260C948A1F0C94F01C0C9474168E
S11305000C94AC0D0C948B120C940D170C94AD1D23
S11305100C945F250C9404250C943C250C94C6255E
S11305200C949F120C94F9110C9499120C94A1122E
S11305300C949C120C940B2511241FBECFEFCDBF3D
S1130540DFE3DEBF00E00CBF18BE19BE1ABE1BBE3F
S113055010E2A0E0B0E2EEE6F1E500E00BBF02C07D
S113056007900D92A83EB107D9F71BBE2AE3A8EE67
S1130570B0E201C01D92A33AB207E1F70E94200B3A
S11305800C94B5280C94000090E0FC01EE0FFF1FC2
S1130590EE0FFF1FEE0FFF1FE55FF44D27812223AF
S11305A074F42DE1289FF001299FF00D1124E55EDC
S11305B0F74C21E03281311129C020E027C0FC0131
S11305C0EE0FFF1FEE0FFF1FEE0FFF1FE55FF44D51
S11305D02681222374F02DE1289FF001299FF00D3C
S11305E01124E55EF74C21E0308131110FC020E089
S11305F00DC02DE1289FF001299FF00D1124E55E27
S1130600F74C21E03181311101C020E0222319F19E
S1130610FC01EE0FFF1FEE0FFF1FEE0FFF1FE55F44
S1130620F44D2181222394F4FC01E056FD4D2081F8
S113063025FF0CC0E6E1FAE31382128211821082D4
S1130640FC01EA5CFD4C21E0208309C0FC01EA5C6A
S1130650FD4C108204C0FC01EA5CFD4C1082E6E310
S1130660F2E326E432E390E08191811191E0E21714
S1130670F307D1F790931B3A0895CF93DF93E4E007
S1130680FAE3A82FB0E0A55EB74C24E13AE39081E9
S1130690977F91938C91882321F0EF0121979860A3
S11306A098835D96E217F30791F781E080936F22B8
S11306B0DF91CF9108958FEF08950895CF92DF923F
S11306C0FF920F931F93CF93DF93E0EAF2E29089B6
S11306D09B7F908BE9E2F8E3A0E7B2E20F2EFCE007
S11306E0CF2EFBE2DF2EF02D20EA32E269EF79E330
S11306F0F12CAF018181811103C080818823F9F03D
S11307008C9181508230D8F48601E6018E81882351
S113071064F08D8188232CF0EA018985811105C05C
S11307200EC0EA018A85882351F0E8018881882374
S113073034F4E901888185FF02C0FF24F3947D9697
S11307401196D8E0CD0ED11C2F5F3F4FE617F70767
S113075081F6FF2019F094609093B0228091B0222A
S113076082FF19C0E0918222AE2FB0E0AB53BC4DA2
S113077080ED8C93A1E0AE0FB0E0AB53BC4D81E0B3
S11307808C9393E09E0F90938222EE5FF0E0EB5304
S1130790FC4D808318C0E0918222AE2FB0E0AB53B1
S11307A0BC4D80ED8C93A1E0AE0FB0E0AB53BC4DDB
S11307B081E08C9383E08E0F80938222EE5FF0E0E1
S11307C0EB53FC4D108281E080936F22DF91CF9137
S11307D01F910F91FF90DF90CF900895CF92DF92F9
S11307E0FF920F931F93CF93DF93E0EAF2E23089F5
S11307F03E7F308BE8E2F8E3A0E7B2E20F2EFCE0A4
S1130800CF2EFBE2DF2EF02D80EA92E268EF79E34F
S1130810F12C20812223E9F02C9121502230C8F4BC
S11308208601E6012E81222354F02D81222324F017
S11308302285211104C00DC02385222351F0E80133
S11308402881222334F4EC012881247211F0FF243E
S1130850F3947D961196D8E0CD0ED11C0196E6173F
S1130860F707B9F6FF2019F031603093B022809178
S1130870B02280FF19C0E0918222AE2FB0E0AB53CA
S1130880BC4D80ED8C93A1E0AE0FB0E0AB53BC4DFA
S11308901C9283E08E0F80938222EE5FF0E0EB5394
S11308A0FC4D81E0808317C0E0918222AE2FB0E03E
S11308B0AB53BC4D80ED8C93A1E0AE0FB0E0AB53D5
S11308C0BC4D1C9283E08E0F80938222EE5FF0E099
S11308D0EB53FC4D108281E080936F22DF91CF9126
S11308E01F910F91FF90DF90CF900895CF92DF92E8
S11308F0FF920F931F93CF93DF9320E732E2ECE054
S1130900FBE20F2EF0EACF2EF2E2DF2EF02DABE267
S1130910B8E34CE85BE290E0F12CE90189919E0197
S11309208150823008F05FC0868188230CF58D01E8
S113093012968C911297882359F0808188230CF0A9
S113094052C0E601888185FFD5C0FF24F394D2C04C
S113095015968C911597882309F445C080818823C6
S11309600CF041C0E601888185FF3DC091E03BC0A9
S113097085818823E4F08D018C91882351F0808156
S113098088238CF5E601888185FFBAC0FF24F3949F
S1130990B7C013968C911397882329F180818823FB
S11309A014F5E601888185FF1EC091E01CC08D010D
S11309B011968C911197882351F0808188239CF49F
S11309C0E601888185FFA1C0FF24F3949EC014969C
S11309D08C911497882339F08081882324F4E601CC
S11309E0888185FD91E03896DFEFCD1ADD0A5D96AA
S11309F04E175F0709F091CF8091B0228F7CF110E0
S1130A0003C08093B02203C080628093B0229923F4
S1130A1029F0E0EAF2E280898061808B8091B02243
S1130A2085FF19C0E0918222AE2FB0E0AB53BC4DDC
S1130A3084E88C93A1E0AE0FB0E0AB53BC4D1C92A4
S1130A4083E08E0F80938222EE5FF0E0EB53FC4D47
S1130A5081E0808317C0E0918222AE2FB0E0AB53D7
S1130A60BC4D84E88C93A1E0AE0FB0E0AB53BC4D19
S1130A701C9283E08E0F80938222EE5FF0E0EB53B2
S1130A80FC4D10828091B02284FF19C0E091822233
S1130A90AE2FB0E0AB53BC4D85E88C93A1E0AE0F14
S1130AA0B0E0AB53BC4D1C9283E08E0F8093822246
S1130AB0EE5FF0E0EB53FC4D81E0808317C0E091E2
S1130AC08222AE2FB0E0AB53BC4D85E88C93A1E0FD
S1130AD0AE0FB0E0AB53BC4D1C9283E08E0F8093FD
S1130AE08222EE5FF0E0EB53FC4D108281E08093B4
S1130AF06F2210C0E8018D81882309F474CF32CFAE
S1130B00E8018B8181114DCF6ECFE8018C81811179
S1130B1066CF69CFDF91CF911F910F91FF90DF9046
S1130B20CF900895282F30E0F901E056FD4D9081D3
S1130B309D7F9083662309F44AC0F901EE0FFF1FDD
S1130B40EE0FFF1FEE0FFF1FE55FF44D47814423B7
S1130B508CF44DE1429FF001439FF00D1124E55EBA
S1130B60F74C4581442399F1F901E056FD4D92601B
S1130B7090832DC0F901EE0FFF1FEE0FFF1FEE0F44
S1130B80FF1FE55FF44D468144238CF04DE1429F05
S1130B90F001439FF00D1124E55EF74C438144239B
S1130BA0B1F0F901E056FD4D9260908310C04DE123
S1130BB0429FF001439FF00D1124E55EF74C448100
S1130BC0442329F0F901E056FD4D92609083F90128
S1130BD0E551F64C1082F901E056FD4D908191FFEC
S1130BE02EC09DE1929FF001939FF00D1124E55ECC
S1130BF0F74C9185992351F0F901E551F64C9AE0AF
S1130C00908304C081E080936F220895E091822252
S1130C10AE2FB0E0AB53BC4D92E89C93A1E0AE0F75
S1130C20B0E0AB53BC4D8C9383E08E0F8093822253
S1130C30EE5FF0E0EB53FC4D81E08083E3CFE09185
S1130C408222AE2FB0E0AB53BC4D93E89C93A1E05D
S1130C50AE0FB0E0AB53BC4D8C9383E08E0F80930A
S1130C608222EE5FF0E0EB53FC4D81E08083CACF3B
S1130C701F93CF93DF93182FC82FD0E08DE1189FD7
S1130C80F0011124E55EF74C848D811197C08DE14C
S1130C908C9FF0018D9FF00D1124E55EF74C878148
S1130CA0882309F459C08DE18C9FF0018D9FF00DCC
S1130CB01124E55EF74C8681882369F1FE01EE0F6D
S1130CC0FF1FEE0FFF1FEE0FFF1FE55FF44D818145
S1130CD08823BCF4FE01E056FD4D808185FF11C0E0
S1130CE0FE01EC56F44D808181116AC061E0812FD0
S1130CF00E94920581E0FE01EC56F44D808391E060
S1130D0066C060E0812F0E949205FE01EC56F44D0E
S1130D10108290E05CC0FE01E056FD4D808185FFAD
S1130D2011C0FE01EC56F44D808181114BC061E08D
S1130D30812F0E94920581E0FE01EC56F44D8083E0
S1130D4091E045C060E0812F0E949205FE01EC56BF
S1130D50F44D108290E03BC08DE18C9FF0018D9F9B
S1130D60F00D1124E55EF74C8681882369F1FE01BC
S1130D70EE0FFF1FEE0FFF1FEE0FFF1FE55FF44D99
S1130D80818188238CF4FE01EC56F44D808181111D
S1130D901DC061E0812F0E94920581E0FE01EC56A6
S1130DA0F44D808391E013C060E0812F0E9492058E
S1130DB0FE01EC56F44D108290E009C090E007C0AB
S1130DC091E005C091E003C090E001C091E08DE1A5
S1130DD08C9FF0018D9FF00D1124E55EF74C80850A
S1130DE08823C1F0FE01E056FD4D808182FF09C0D9
S1130DF061E0812F0E949205CC56D44D81E0888316
S1130E0009C0911107C060E0812F0E949205CC5661
S1130E10D44D1882DF91CF911F9108954F925F9224
S1130E207F928F929F92AF92BF92CF92DF92EF9276
S1130E30FF920F931F93CF93DF9380E090E000EA3B
S1130E4012E26894EE24E7F8F12CA6E4B6E078E028
S1130E50E5E4F6E060E1E8012889422F50E09701DB
S1130E60082E02C0359527950A94E2F724233523EA
S1130E70232B11F0708301C07C9360836C930196E3
S1130E808830910541F764E07AE30F2EF0EA4F2EA3
S1130E90F2E25F2EF02D0F2EFCEFAF2EF9E3BF2E02
S1130EA0F02DA6E4B6E06894EE24E5F8E5E4F6E077
S1130EB06894FF24F3F86894CC24C3F8D12C00E19F
S1130EC010E457C020912321213031F5782E96016A
S1130ED0082E02C0359527950A94E2F720FF1CC01E
S1130EE0EB012F8130E0082E02C0359527950A9436
S1130EF0E2F720FF02C0F08201C0FC92E4012F85DA
S1130F0030E002C0359527957A94E2F720FF02C0BD
S1130F10E0821EC0EC921CC0782EE2012F8130E0EA
S1130F20082E02C0359527950A94E2F720FF02C0E7
S1130F30F08201C0FC92EA012F8530E002C03595B1
S1130F4027957A94E2F720FF02C0E08201C0EC9278
S1130F50008310830C931C9301968630910509F04D
S1130F60B1CF61507109D1E04D1A5108A616B706E8
S1130F7029F080E090E0A2014B01A4CF81E08093AE
S1130F8026068093250682E08093460695E090939A
S1130F90092580934506DF91CF911F910F91FF9012
S1130FA0EF90DF90CF90BF90AF909F908F907F9005
S1130FB05F904F900895CF93DF93E0E7F2E2A2E1D0
S1130FC0BBE2C7E0D2E320E832E290E081918130D5
S1130FD029F48C91882314F48881982B18962196EF
S1130FE0E217F30799F7E0918222AE2FB0E0AB53FA
S1130FF0BC4D80ED8C93A1E0AE0FB0E0AB53BC4D83
S113100082E08C9383E08E0F80938222EE5FF0E087
S1131010EB53FC4D9083DF91CF9108958FEF0895AA
S11310200F931F93CF93DF93E0EAF2E290899D7FC1
S1131030908B8F01A0E7B2E220EB32E240E0819195
S113104082FF05C08C918150823008F441E01196F2
S1131050E217F307A1F780911732811102C04423EC
S113106039F080918F2B882319F092609093B022ED
S1131070E0EAF2E28089877F808B4091902BE2E165
S1131080FBE2A9E2B8E322E93BE260EA72E2E801AA
S113109089918E0183FF0EC0908199235CF49C9109
S11310A0992341F084FF06C0442321F0EB01888991
S11310B08860888B38965D96E217F30741F781E0E4
S11310C080936F22DF91CF911F910F9108955F92CA
S11310D06F927F928F929F92AF92BF92CF92DF9244
S11310E0EF92FF920F931F93CF93DF9383EF91E0DF
S11310F00197F1F700C00000E1E0F6E08FE780839C
S113110080E8808383E08093E2079CEF90936206FB
S1131110A1E2B6E09EE09C93C1E4D6E095E098831A
S1131120E2E8F6E094E0908398E0909381069AE7F1
S1131130988391E09C9380830E94A9260E94981F23
S11311409FB7E0E5F0E0808181608083E8E6F0E02D
S113115080818E7F8083E0E5F0E0818180FFFDCF98
S1131160E0E5F0E0858128ED24BF82E1858380817C
S113117080618083E0E4F0E0818180788C6024BF2A
S11311808183E0E5F0E0818184FFFDCFE0E4F0E0DD
S11311908081887F846028ED24BF8083E0E5F0E0CF
S11311A08081817F8083E0EBF0E08481807F848391
S11311B09FBFA3EFB1E01197F1F700C000001092B8
S11311C02321109217320F2EF0EAEF2EF2E2FF2EB7
S11311D0F02DA4E0BAE320EB32E2F70180E1819341
S11311E01D92E217F307D9F780E48093B0220E949E
S11311F00E07ECE1FAE31382128211821082E6E117
S1131200FAE31382128211821082E6E3F2E36BEEB8
S113121079E342EB52E223E131E281E99DE2C4E960
S1131220DBE20F2EF7E0CF2EF2E3DF2EF02D06E403
S113123012E31192DB011D92BD01DA011D92AD0191
S1131240D9011D929D01DC011D92CD011992D60197
S11312501D926D01E017F10761F710921B3A10928D
S113126081221092153A1092242110928222109217
S1131270932B1092C42310926E2281E080936A22F1
S1131280109280221092183210926C221092252112
S113129080938D2B10928C2B10926B2210926D22C6
S11312A00E94030D6EE170E281E090E00E942A2129
S11312B06FE270E280E090E00E942A2161E370E234
S11312C081E090E00E942A211092C3221092C2224F
S11312D00E945B27E2EAF0E0808181608083789459
S11312E020E140E752E260E080E70E949A270E94F2
S11312F0C927853021F00E94C9278F3FC1F72DE10E
S113130046EF50E260E180E70E949A270E94C927D5
S1131310853009F45DC10E94C9278F3FB9F758C1D0
S113132081918D932E173F07D9F725E04EE85BE2B4
S11313306DE280E70E949A270E94C927853021F038
S11313400E94C9278F3FC1F78AE090E00E94690D8F
S11313500F2EFBE0CF2EFBE2DF2EF02D4BE85BE2FD
S1131360F60121E008C02193E817F907E1F7FC0131
S11313704817590719F0CF010896F5CFEBEFF9E3B9
S113138023E03AE381E08193E217F307E1F78AE08F
S113139090E00E94690D14E680E00E94532281E0EF
S11313A00E9453221150C1F710928B2B1092F520FA
S11313B00F2EF0E78F2EF2E29F2EF02D8401712C78
S11313C066246394F6018481881F8827881F880F08
S11313D0958199230CF481605801D8019C91891757
S11313E071F18C936FE270E280E090E00E942A2118
S11313F062E470E281E090E00E942A2184E190E0BE
S11314000E94690D688219821A826B821C821D8275
S11314106E821F82188619861A861B861C861D8674
S11314201E861F86188A198A1A8A1B8A1C8A1D8A94
S11314301E8A1F8A188E198E1A8E1B8E1C8EF50119
S11314408081823091F41A826B826C821D821E82AA
S11314506F8219861D861E861F861A8A1D8A1F8A18
S1131460188E198E1A8E1B8E1C8E7394F8E0CF0E74
S1131470D11C0F5F1F4F6D9680E17812A3CFC1E29C
S1131480D8E30CE01BE2712C6894552454F868945A
S1131490662465F86701D7011C928889882321F1A5
S11314A06C928981882309F4A1C08881811198C034
S11314B061E0872D0E949205F801808188237CF4E5
S11314C08981882339F08881882321F061E0872D80
S11314D00E949205D6018C9181608C9307C0F6011D
S11314E080818061808302C0D7015C927394BFEFD6
S11314F0EB1AFB0A6D96085F1F4FE0E17E12CACF1C
S11315007BC0D4018D914D01813019F0823019F0E6
S113151003C04F5F01C09F5F8216930691F740930B
S1131520C2229093C32261E570E280E090E00E94C1
S11315302A216EE170E281E090E00E942A210E945B
S1131540EA2388EE93E00E94690DE6E6F6E081E086
S1131550808382E0808384E0808388E0808380E1EC
S11315608093650680914806837479F481E08093C2
S1131570922B6FE270E280E090E00E942A2163E502
S113158070E281E090E00E942A2182E390E00E94D0
S1131590690D61E570E280E090E00E942A2164E632
S11315A070E281E090E00E942A216FE270E280E024
S11315B090E00E942A2160918122B1E16B9FB001E9
S11315C011246A5D7D4D81E090E00E942A2128C0AB
S11315D0E6EFF0E2CBE1D8E324E131E2DE01A0CE94
S11315E0F801808188230CF07ACF70CFD8018C91D8
S11315F088230CF074CF6ECF80E48093B0220E94D5
S113160076040E94EE030E945E030E9410080E946A
S11316100E074091C2229091C32220E832E271CF9A
S1131620DF91CF911F910F91FF90EF90DF90CF90BA
S1131630BF90AF909F908F907F906F905F90089530
S1131640CF93DF93CDB7DEB72997CDBFDEBF0E941E
S11316506708E6E1FAE323818DEC289F912D11249C
S113166096959695969530E3390F3983990F392FCE
S1131670330F330F930F291B922F905D9A834AE304
S11316804B832281289F912D1124969596959695AA
S113169030E3390F3C83990F392F330F330F930FF6
S11316A0291B922F905D9D834E839181989F812D5C
S11316B0112486958695869520E3280F2F83880F1D
S11316C0282F220F220F820F981B892F805D888775
S11316D065E770E280E090E00E942A211986BE014D
S11316E06F5F7F4F81E090E00E942A211092932B3C
S11316F0109224211092153AE5ECF3E284E98083F8
S11317001182AEE8BBE282E09D91E82FF0E0EB535A
S1131710FC4D9F7790838F5F8730B1F7809382224F
S113172080916A22882349F081E08093932B8091F1
S1131730C5238093A00A10926A2284E690E00E9456
S1131740690D2BE138E390E063E90F2EF0EAEF2E08
S1131750FAE0FF2EF02D80918222E82FF0E0EB5387
S1131760FC4D608342E0480FE1E0E80FF0E0EB530A
S1131770FC4D9083815EF901508151705193042F87
S113178010E00B531C4DD8015C934F5F4813F4CF0A
S113179080938222E091932BE81789F080916A224A
S11317A0882389F081E08E0F8093932BF0E0EB5334
S11317B0FC4D8081F701808310926A2204C08091DD
S11317C06A228111FECF9F5F235E3F4F903119F64D
S11317D08AE090E00E94690D1092932B109282226D
S11317E0109224211092153A0F2EFBEF6F2EF9E37D
S11317F07F2EF02D332433940F2EFDEC2F2EF02D5D
S11318000F2EF0EA4F2EFAE05F2EF02D0BEE19E3C7
S11318100F2EF1E98F2EFDE29F2EF02D0F2EF0EA10
S1131820EF2EF2E2FF2EF02D0F2EF3E1AF2EF1E2B8
S1131830BF2EF02D0F2EF2EBCF2EF2E2DF2EF02D85
S1131840D8018C91882351F081508C93811106C06A
S1131850F70180818D7F808330926F22D6018C9135
S1131860882351F081508C93811106C0F701808147
S11318708D7F808330926F22D5018C91882361F013
S113188081508C93811108C0F7018081846080832A
S11318900E94100830926F22D4018C91882351F059
S11318A081508C93811106C0F70180818F7E8083E3
S11318B030926F220F5F1F4FFFEF8F1A9F0A8FEF37
S11318C0E81AF80A9FEFA91AB90AAFEFCA1ADA0A96
S11318D00615170509F0B4CF80916F22882321F0F3
S11318E010926F220E940E078091173A90911D3A30
S11318F0891709F44CC02091193A229D912D112485
S113190096959695969530E3390F3983990F392F2B
S1131910330F330F930F291B205D2A83BAE3BB8354
S11319202091183A229D912D11249695969596957D
S113193030E3390F3C83990F392F330F330F930F53
S1131940291B205D2D83BE83829D912D11249695A4
S11319509695969520E3290F2F83990F292F220F0F
S1131960220F920F891B805D8887198665E770E2D4
S113197080E090E00E942A21BE016F5F7F4F81E0EA
S113198090E00E942A218091173A80931D3A0E9488
S1131990DB23E091F52080918B2B8E1769F081E099
S11319A08E0F8093F520F0E0EE0FFF1FE65FFA4DF7
S11319B0808191810E94810DE1E0E093912B9091CF
S11319C0153A8091242198130E94AC24E091932B22
S11319D0809182228E1709F419CF80916A2288237C
S11319E009F414CF81E08E0F8093932BF0E0EB5336
S11319F0FC4D8081D2018C9310926A22F201818184
S1131A0085FFFCCF03CFF89483E08093000882E045
S1131A10809306088DE59AE580932608909327081D
S1131A20E2EAF0E0808182608083789408951F92D6
S1131A300F920FB60F92112408B60F9218BE0BB670
S1131A400F921BBE8F93EF93FF9380911A3A8F5F8F
S1131A5080931A3A8A3018F010921A3A02C081110F
S1131A602CC080911B3A882341F18091163A865FFD
S1131A708B3518F48093163A20C0E6E1FAE310821D
S1131A8081818F5F8C3318F48093173A16C0E6E196
S1131A90FAE3118282818F5F8C3318F48093183AB1
S1131AA00CC0E6E1FAE3128283818F5F883118F477
S1131AB08093193A02C01092193AFF91EF918F91D5
S1131AC00F900BBE0F9008BE0F900FBE0F901F908B
S1131AD018951816190654F0089521503109E9F79C
S1131AE04F5F5F4F841795071CF4089541E050E061
S1131AF021E137E2F2CF29EC30E021503109E9F756
S1131B000895CF92DF92EF92FF920F931F93CF939A
S1131B10DF93CDB7DEB76197CDBFDEBF9C013695AD
S1131B2027953695279536952795422F4F70E42EA5
S1131B308C01002711709C012778327027383240BD
S1131B4011F40C94F21E877890E0FC018827E2508F
S1131B50FF4F8F4F0C94982880912321813011F4EA
S1131B600C948A1FE42EF12CF701E059FD4D80817D
S1131B70813029F0823009F44EC20C948A1F012B63
S1131B8009F0AAC1F701EE0FFF1FEE0FFF1FEE0FC2
S1131B90FF1FE55FF44D878188230CF056C08DE16B
S1131BA08E9DF0018F9DF00D1124E55EF74C848528
S1131BB0882309F44AC00F2EF0EACF2EF2E2DF2E7A
S1131BC0F02D870100561D4DF80180818C608083C3
S1131BD00E94EE03D60150968C915097877F5096C1
S1131BE08C93F801908190FF04C0F8019061908378
S1131BF020C0F701EE0FFF1FEE0FFF1FEE0FFF1FB8
S1131C00E55FF44D27812223A4F42DE12E9DF001FC
S1131C102F9DF00D1124E55EF74C2685222349F013
S1131C2094FF07C09091902B992319F088608093BA
S1131C30B02211E0F701E95FFD4C10830E94DB073D
S1131C400E945D0310936F22C5C0F701EE0FFF1FC2
S1131C50EE0FFF1FEE0FFF1FE55FF44D8681882313
S1131C600CF45DC08DE18E9DF0018F9DF00D11246B
S1131C70E55EF74C8285882311F40C945B1FF70111
S1131C80E056FD4D80818C6080830E94EE038DE1DF
S1131C908E9DF0018F9DF00D1124E55EF74C878930
S1131CA0882309F497C0E0EAF2E28089877F808B79
S1131CB0F701E056FD4D808180FF05C0F701E05635
S1131CC0FD4D80618083F701EE0FFF1FEE0FFF1FB4
S1131CD0EE0FFF1FE55FF44D86818823D4F08DE17C
S1131CE08E9DF0018F9DF00D1124E55EF74C8685E5
S1131CF0882379F0F701E056FD4D808184FF09C007
S1131D008091902B882329F0E0EAF2E280898860B0
S1131D10808B0E945D0381E080936F225BC08DE124
S1131D208E9DF0018F9DF00D1124E55EF74C8385A7
S1131D30882311F40C946B1FF701E056FD4D80814C
S1131D408C6080830E94EE038DE18E9DF0018F9D57
S1131D50F00D1124E55EF74C808D8823D9F1E0EA7B
S1131D60F2E28089877F808BF701E056FD4D808108
S1131D7080FF05C0F701E056FD4D80618083F701C7
S1131D80EE0FFF1FEE0FFF1FEE0FFF1FE55FF44D79
S1131D9086818823D4F48DE18E9DF0018F9DF00D12
S1131DA01124E55EF74C8685882379F0F701E05627
S1131DB0FD4D808184FF09C08091902B882329F0F8
S1131DC0E0EAF2E280898860808B0E945D0381E012
S1131DD080936F22F701EE0FFF1FEE0FFF1FEE0F30
S1131DE0FF1FE55FF44D878188230CF59DE19E9DDF
S1131DF0F0019F9DF00D1124E55EF74C918D992320
S1131E00B1F0E0918B2B81E08E0F80938B2BF0E06F
S1131E10EE0FFF1FE65FFA4DC701880F991F880F69
S1131E20991F880F991F83608083918351C0F701A4
S1131E30EE0FFF1FEE0FFF1FEE0FFF1FE55FF44DC8
S1131E40968199231CF19DE19E9DF0019F9DF00DCB
S1131E501124E55EF74C928D9923D1F18823C4F1C6
S1131E60E0918B2B81E08E0F80938B2BF0E0EE0FB3
S1131E70FF1FE65FFA4DC701880F991F880F991F4E
S1131E80880F991F83608083918322C09DE19E9D6A
S1131E90F0019F9DF00D1124E55EF74C938D99237D
S1131EA0B9F08823ACF0E0918B2B81E08E0F809306
S1131EB08B2BF0E0EE0FFF1FE65FFA4DC701880F92
S1131EC0991F880F991F880F991F836080839183BE
S1131ED00E9410080C948A1FF701EE0FFF1FEE0FEB
S1131EE0FF1FEE0FFF1FE55FF44D878188237CF50C
S1131EF08DE18E9DF0018F9DF00D1124E55EF74C70
S1131F008485882321F1F701E056FD4D8081982FC7
S1131F10937F908385FF11C0F701EE0FFF1FEE0F33
S1131F20FF1FEE0FFF1FE55FF44D918199232CF401
S1131F30F701E056FD4D837E8083F701E95FFD4C98
S1131F4010820E94DB0781E080936F225EC0F7015C
S1131F50EE0FFF1FEE0FFF1FEE0FFF1FE55FF44DA7
S1131F608681882354F18DE18E9DF0018F9DF00DC3
S1131F701124E55EF74C8285882309F446C0F701F5
S1131F80E056FD4D8081982F937F908385FF11C08B
S1131F90F701EE0FFF1FEE0FFF1FEE0FFF1FE55FB0
S1131FA0F44D918199232CF4F701E056FD4D837E85
S1131FB0808381E080936F2228C08DE18E9DF001A3
S1131FC08F9DF00D1124E55EF74C83858823E9F09D
S1131FD0F701E056FD4D8081982F937F908385FF14
S1131FE011C0F701EE0FFF1FEE0FFF1FEE0FFF1FD3
S1131FF0E55FF44D918199232CF4F701E056FD4DF2
S1132000837E808381E080936F220E94EE030E948E
S113201010080C948A1F012B09F07DC0F701EE0F04
S1132020FF1FEE0FFF1FEE0FFF1FE55FF44D8681CC
S113203088230CF18DE18E9DF0018F9DF00D11240C
S1132040E55EF74C82858823B9F1E0918B2B81E022
S11320508E0F80938B2BF0E0EE0FFF1FE65FFA4D9F
S1132060C701880F991F880F991F880F991F8260D5
S1132070808391834CC08DE18E9DF0018F9DF00D86
S11320801124E55EF74C83858823B1F0E0918B2B16
S113209081E08E0F80938B2BF0E0EE0FFF1FE65F45
S11320A0FA4DC701880F991F880F991F880F991F30
S11320B08260808391832BC0F701EE0FFF1FEE0F28
S11320C0FF1FEE0FFF1FE55FF44D87818823FCF4AB
S11320D08DE18E9DF0018F9DF00D1124E55EF74C8E
S11320E084858823A1F0F701E056FD4D808180FFAF
S11320F006C0F701E056FD4D8C60808305C0F701F2
S1132100E056FD4D8C61808381E080936F220E94B4
S113211010080C948A1FF701EE0FFF1FEE0FFF1F2C
S1132120EE0FFF1FE55FF44D87818823CCF48DE12A
S11321308E9DF0018F9DF00D1124E55EF74C848592
S1132140882371F0F701E056FD4D808180FF08C0BF
S1132150F701E056FD4D837E808381E080936F22FA
S11321600E9410080C948A1FC42ED12CF601E05949
S1132170FD4D8081813029F0823009F4ABC00C948C
S11321808A1F012B09F061C0F601E056FD4D8081E4
S113219085FF3DC08F01816080830E9476048E2D6F
S11321A00E94C402F8018081982F937F90839091BC
S11321B08E2B9923C1F0F601EE0FFF1FEE0FFF1FC8
S11321C0EE0FFF1FE55FF44D9181992364F485FFC1
S11321D00AC0E0EAF2E220EB32E28081837F81935D
S11321E0E217F307D1F70E9410080E94EE030E9441
S11321F05E038E2D0E943806F601E056FD4D808167
S11322008F7E808381E080936F220C948A1F8DE1FE
S11322108C9DF0018D9DF00D1124E55EF74C8681B7
S1132220882371F08DE18C9DF0018D9DF00D1124BA
S1132230E55EF74C8781811103C0842F0E94380624
S11322408E2D0E94C4020C948A1FF601E056FD4DA7
S11322508081982F9061908385FF18C08DE18C9DBB
S1132260F0018D9DF00D1124E55EF74C86818823E5
S113227019F0842F0E9438060E9476048E2D0E9445
S1132280C4020E94EE030E945E0319C08DE18C9D7E
S1132290F0018D9DF00D1124E55EF74C86818823B5
S11322A071F08DE18C9DF0018D9DF00D1124E55EA2
S11322B0F74C8781811103C0842F0E943806F601F0
S11322C0E056FD4D80818E7F808381E080936F2274
S11322D00C948A1F012B09F07CC0F601E056FD4DD9
S11322E0808185FD02C00C948A1F842F0E945B03A9
S11322F08430C0F490918222E92FF0E0EB53FC4D3E
S113230022EC2083E1E0E90FF0E0EB53FC4D808305
S113231083E0890F80938222E2E0E90FF0E0EB533F
S1132320FC4D10820E9476048E2D0E94C402F60198
S1132330E056FD4D8081982F937F908390918E2B52
S11323409923D1F1F601EE0FFF1FEE0FFF1FEE0FE1
S1132350FF1FE55FF44D9181992374F585FF2CC02F
S113236000EA12E2F12C0F2EF2ECEF2EF02D8F2D5D
S11323700E945B038430B0F4E0918222AE2FB0E07F
S1132380AB53BC4DEC92A1E0AE0FB0E0AB53BC4DEF
S11323908C9383E08E0F80938222EE5FF0E0EB5308
S11323A0FC4D1082D8018C91837FF80181938F01B9
S11323B0F394F0E1FF12DBCF0E941008F601E0561F
S11323C0FD4D80818F7E808381E080936F220C9409
S11323D08A1F0E9476048E2D0E94C402F601E056E4
S11323E0FD4D80818061808381E080936F220C9415
S11323F08A1F80912321813009F01EC1012B11F025
S11324000C948A1F8091922B882311F40C948A1FB8
S113241081E1E6EDF0E2DE01119601900D928A95DC
S1132420E1F720918122422F50E0CE2CD12CFA01E9
S11324308DE1E89EE00DF11D1124E55EF74C8081ED
S1132440882361F08DE18C9DF0018D9DF00D1124A8
S1132450E55EF74CE40FF51F10820CC08DE18C9DF6
S1132460F0018D9DF00D1124E55EF74CE40FF51F8E
S113247081E08083F601E059FD4D3081323011F066
S11324800C944C1F822F90E0FC013297EA31F10545
S113249008F58827E957FE4F8F4F0C9498288DE153
S11324A08C9DF0018D9DF00D1124E55EF74CE40F39
S11324B0F51F10820C947B1F8DE18C9DF0018D9D86
S11324C0F00D1124E55EF74CE40FF51F81E08083E5
S11324D00C947B1F822F90E0FC013397E631F105C9
S11324E080F58827EF55FE4F8F4F0C94982810E005
S11324F060E0812F0E949205812F0E94C4021F5F19
S11325001031B1F71EC00E94EE031BC00E94EE03FF
S11325100E945E0316C0313061F4822F90E0FC010A
S1132520E55EF74C80E0E81210828F5F7D96803183
S1132530D1F70E945E0305C00E945E0302C00E94A0
S11325407604C60101966AE070E00E948428605D0A
S11325506887805D8987809181228930E9F48DE1E3
S11325608C9DF0018D9DF00D1124E55EF74C818565
S1132570882349F080E58C8785E78D878CE68E87F4
S113258083E78F8723C083E48C878FE68D878EE66D
S11325908E8784E78F871AC09DE19C9DF0019D9DE5
S11325A0F00D1124E55EF74CE80FF11D80818823BE
S11325B039F089E58C8785E68D8783E78E8706C0A9
S11325C080E28C878EE48D878FE68E876FE270E2DF
S11325D080E090E00E942A21BE016F5F7F4F81E07E
S11325E090E00E942A21809181220E943D03209143
S11325F08222E22FF0E0EB53FC4D83E9808382E0FA
S1132600820FE1E0E20FF0E0EB53FC4DE0829DE14C
S1132610E99ED0011124A55EB74C215E9D91E82F5F
S1132620F0E0EB53FC4D9F7790838F5F2813F6CF38
S1132630209382220C948A1FC42ED12CF601E059D7
S1132640FD4D8081813029F0823009F497C00C94CB
S11326508A1F012B11F00C948A1FF601E056FD4DE0
S1132660808182FF46C000EA12E2F601E056FD4D89
S1132670837F8083842F0E9438060E94EE03D80152
S113268050968C915097877F50968C9350971091C9
S1132690902BCD01E2E1FBE20F2EF9E2EF2EF8E3FD
S11326A0FF2EF02D42E95BE2BD01DC012D91CD014D
S11326B023FF12C0308133237CF4D7013C913323B0
S11326C059F024FF09C0112339F0DB0150962C91F5
S11326D05097286050962C933896BDE1EB0EF11C70
S11326E04E175F0711F70E945D0381E080936F220C
S11326F041C000EA12E2F601E056FD4D8C60808391
S1132700842F0E9438060E94EE03F8018089877F97
S1132710808B1091902BCF01E2E1FBE20F2EF9E2C6
S1132720EF2EF8E3FF2EF02D42E95BE2BC01DC0161
S11327302D91CD0123FF12C0308133237CF4D701C6
S11327403C91332359F024FF09C0112339F0DB01F4
S113275050962C915097286050962C933896BDE152
S1132760EB0EF11C4E175F0711F70E945D0381E029
S113277080936F220E9410080C948A1F012B11F081
S11327800C948A1FF601EE0FFF1FEE0FFF1FEE0FD2
S1132790FF1FE55FF44D8181882314F40C948A1F94
S11327A0842F0E945B03F601E056FD4D908192FF59
S11327B025C0F601E056FD4D937F90838430C0F42C
S11327C090918222E92FF0E0EB53FC4D22EC208320
S11327D0E1E0E90FF0E0EB53FC4D808383E0890FE7
S11327E080938222E2E0E90FF0E0EB53FC4D10828B
S11327F00E945D0381E080936F2253C0F601E0568E
S1132800FD4D9B629083F601ED5EFE4D9AE0908350
S113281090918222E92FF0E0EB53FC4D22E82083D3
S1132820E1E0E90FF0E0EB53FC4DE082E3E0E90F77
S1132830E0938222A2E0A90FB0E0AB53BC4D21E0AB
S11328402C93843048F5F0E0EB53FC4D20EC2083CE
S1132850E4E0E90FF0E0EB53FC4D8083E5E0E90FA1
S1132860F0E0EB53FC4D21E02083E6E0E90FF0E0DB
S1132870EB53FC4D32EC3083E7E0E90FF0E0EB532F
S1132880FC4D808389E0890F80938222E8E0E90F80
S1132890F0E0EB53FC4D20830E945D0381E08093C4
S11328A06F220E9410080C948A1FC42ED12CF601AA
S11328B0E059FD4D8081813029F0823009F4C2C095
S11328C00C948A1F8DE18C9DF0018D9DF00D1124D7
S11328D0E55EF74C848D882359F1F601E056FD4DF1
S11328E080818F7E81628083012B51F461E0842F8B
S11328F00E949205F601EC56F44D81E0808313C0EA
S11329008DE18C9DF0018D9DF00D1124E55EF74C59
S11329108185811108C060E0842F0E949205F60130
S1132920EC56F44D108281E080936F220C948A1F40
S1132930012B11F00C948A1FF601E056FD4D8081A5
S113294085FF27C08F018E7D8083842F0E943806E7
S1132950D8018C9180618C93F601EE0FFF1FEE0F6E
S1132960FF1FEE0FFF1FE55FF44D8181882364F4A0
S11329708E2D0E9438060E94EE030E945E038E2D67
S11329800E94C4020E94760481E080936F220C941A
S11329908A1FF601E056FD4D80628083842F0E94D9
S11329A03806F601EE0FFF1FEE0FFF1FEE0FFF1F9D
S11329B0E55FF44D818188230CF03FC08601005609
S11329C01D4DF8018081816080838E2D0E94380620
S11329D0D8018C91982F937F9C9390918E2B99235F
S11329E0C1F0F601EE0FFF1FEE0FFF1FEE0FFF1FEA
S11329F0E55FF44D9181992364F485FF0AC0E0EA10
S1132A00F2E220EB32E28081837F81932E173F072D
S1132A10D1F70E9410088E2D0E94C4020E947604F1
S1132A200E94EE030E945E038E2D0E943806F6017A
S1132A30E056FD4D80818F7E808381E080936F22FC
S1132A400C948A1F012B11F00C948A1F842F0E946E
S1132A505B03182FF601E056FD4D808185FF88C089
S1132A608E2D0E945B03182F843058F580918222AA
S1132A70E82FF0E0EB53FC4D92EC9083E1E0E80F9B
S1132A80F0E0EB53FC4D1083E2E0E80FF0E0EB5391
S1132A90FC4D1082E3E0E80FF0E0EB53FC4D93ECC7
S1132AA09083E4E0E80FF0E0EB53FC4D108396E0F4
S1132AB0980F90938222E5E0E80FF0E0EB53FC4D91
S1132AC01082F601E056FD4D8081827D8061808315
S1132AD0F601EE54FD4D8AE0808380918222E82F36
S1132AE0F0E0EB53FC4D93E89083E1E0E80FF0E075
S1132AF0EB53FC4DE08293E0980F90938222E2E046
S1132B00E80FF0E0EB53FC4D81E080830E94100855
S1132B10F601EE0FFF1FEE0FFF1FEE0FFF1FE55F25
S1132B20F44D818188232CF48E2D0E94C4020E94CE
S1132B3076041430C0F480918222E82FF0E0EB5345
S1132B40FC4D90EC9083E1E0E80FF0E0EB53FC4D9A
S1132B50108393E0980F90938222E2E0E80FF0E074
S1132B60EB53FC4D108281E080936F220C948A1FFA
S1132B70F601E056FD4D83628083E0918222AE2F00
S1132B80B0E0AB53BC4D82E88C93A1E0AE0FB0E053
S1132B90AB53BC4DEC9283E08E0F80938222EE5FA8
S1132BA0F0E0EB53FC4D81E08083F601EE0FFF1F54
S1132BB0EE0FFF1FEE0FFF1FE55FF44D81818823A9
S1132BC00CF072C08E2D0E945B038430C0F490918F
S1132BD08222E92FF0E0EB53FC4D22EC2083E1E06C
S1132BE0E90FF0E0EB53FC4D808383E0890F809381
S1132BF08222E2E0E90FF0E0EB53FC4D1082F60193
S1132C00E056FD4D8081982F937F90839AE0F601E2
S1132C10EF56F24D908390918E2B9923F1F1F601AA
S1132C20EE0FFF1FEE0FFF1FEE0FFF1FE55FF44DCA
S1132C309181992394F585FF30C00F2EF0EACF2EB1
S1132C40F2E2DF2EF02D00E00F2EF2ECFF2EF02D3D
S1132C50802F0E945B038430B8F490918222E92F84
S1132C60F0E0EB53FC4DF082E1E0E90FF0E0EB53D0
S1132C70FC4D808383E0890F80938222E2E0E90F98
S1132C80F0E0EB53FC4D1082F6018081837FD60186
S1132C908D936D010F5F0031D9F60E9410088E2DBF
S1132CA00E94C4020E9476041430C8F480918222E7
S1132CB0E82FF0E0EB53FC4D90EC9083E1E0E80F5B
S1132CC0F0E0EB53FC4D108393E0980F9093822235
S1132CD0E2E0E80FF0E0EB53FC4D81E0808381E01B
S1132CE080936F220C948A1F842F0E943806E6E199
S1132CF0FAE313821282118210828E2D0E94C40282
S1132D000E94EE030E945E030E9476040C948A1FC4
S1132D10C42ED12CF601E059FD4D8081813021F083
S1132D20823061F10C948A1FF601EE0FFF1FEE0F43
S1132D30FF1FEE0FFF1FE55FF44D8781882354F0DA
S1132D40E0EAF2E28089877F808B0E945D0381E064
S1132D5080936F228E2D0E943806E6E1FAE31382F7
S1132D601282118210828E2D0E94C4020E94EE03F0
S1132D700E945E030E9476040C948A1F842F0E9492
S1132D805B03012B09F5F601E056FD4D9081996036
S1132D9090838430E8F5E0918222AE2FB0E0AB530B
S1132DA0BC4D91EC9C93A1E0AE0FB0E0AB53BC4D95
S1132DB08C9383E08E0F80938222EE5FF0E0EB53DE
S1132DC0FC4D81E0808324C0F601E056FD4D9081E6
S1132DD091FD05C0F601E056FD4D967F9083843049
S1132DE0B8F4E0918222AE2FB0E0AB53BC4D91EC2D
S1132DF09C93A1E0AE0FB0E0AB53BC4D8C9383E049
S1132E008E0F80938222EE5FF0E0EB53FC4D108234
S1132E1081E080936F220C948A1F6FE270E280E05D
S1132E2090E00E942A21012B11F00C948A1F8091BA
S1132E302321882309F495C08130B9F44BE158E388
S1132E4028E636E36BEE79E30CC081918D932E175F
S1132E503F07D9F7435E5F4F235E3F4F6417750703
S1132E6089F0F9017D97DA01F0CF823059F4E6E474
S1132E70F6E3AEE8BBE22BE436E381918D932E17A3
S1132E803F07D9F7109223211092812261E570E265
S1132E9080E090E00E942A2164E670E281E090E004
S1132EA00E942A216FE270E280E090E00E942A21D1
S1132EB060918122B1E16B9FB00111246A5D7D4D67
S1132EC081E090E00E942A21E6E1FAE323818DEC7F
S1132ED0289F912D112496959695969530E3390F58
S1132EE03983990F392F330F330F930F291B205D2B
S1132EF02A834AE34B832281289F912D112496959E
S1132F009695969530E3390F3C83990F392F330FFB
S1132F10330F930F291B205D2D834E839181989F3E
S1132F20812D112486958695869520E3280F2F837D
S1132F30880F282F220F220F820F981B905D9887ED
S1132F40198665E770E280E090E00E942A21BE01C4
S1132F506F5F7F4F81E090E00E942A210E940E075C
S1132F60D9C780918122811107C0E6E1FAE3138277
S1132F70128211821082CEC70E94981F6FE270E203
S1132F8080E090E00E942A2161E570E280E090E018
S1132F900E942A2164E670E281E090E00E942A21E6
S1132FA06FE270E280E090E00E942A216091812229
S1132FB0E1E16E9FB00111246A5D7D4D81E090E0F6
S1132FC00E942A21E6E1FAE323818DEC289F912DCA
S1132FD0112496959695969530E3390F3983990F78
S1132FE0392F330F330F930F291B205D2A834AE3B4
S1132FF04B832281289F912D112496959695969521
S113300030E3390F3C83990F392F330F330F930F6C
S1133010291B205D2D834E839181989F812D11243E
S113302086958695869520E3280F2F83880F282F71
S1133030220F220F820F981B905D9887198665E7EF
S113304070E280E090E00E942A21BE016F5F7F4F12
S113305081E090E00E942A210E940E075BC7012BA9
S113306009F058C780912321882321F0833009F483
S1133070AEC073C280918122813041F070F0823001
S113308009F44DC0833009F488C044C74BE456E3C7
S113309028E338E36BE178E316C0E6E1FAE3138250
S11330A012821182108281E080931B3A33C781918E
S11330B08D932E173F07D9F7435E5F4F235E3F4F33
S11330C06417750721F0F9017D97DA01F0CF81E0EB
S11330D0809323211092812261E570E280E090E0E8
S11330E00E942A2160918122F1E16F9FB001112495
S11330F06C55744D81E090E00E942A216FE270E2E9
S113310080E090E00E942A2167E770E281E090E08D
S11331100E942A21809181220E943D03FBC6EEE891
S1133120FBE2A6E4B6E323E93BE281918D932E17FB
S11331303F07D9F782E0809323211092812261E531
S113314070E280E090E00E942A216091812221E1D6
S1133150629FB00111246B537B4D81E090E00E948B
S11331602A216FE270E280E090E00E942A21E0913F
S11331708122F0E0E257F44D8081882339F068E839
S113318070E281E090E00E942A21C4C669E970E2FD
S113319081E090E00E942A21BDC683E08093232130
S11331A01092812261E570E280E090E00E942A2181
S11331B06091812241E1649FB00111246F55724DE9
S11331C081E090E00E942A210E94EA23A3C6809114
S11331D08122833009F494C0843009F445C18130DC
S11331E009F04EC120E140E752E260E070E080E780
S11331F00E94971F00E110E0A801455F574C2DE1A4
S1133200B80180E70E94971F035E1F4F003E81E0D4
S1133210180791F725E04EE85BE260EE71E080E785
S11332200E94971F60E772E24BE158E330E00F2EF3
S1133230F3E9FF2EF02D00EA1AE0DB018D91BD01C8
S113324081508230E8F420918222E22FF0E0EB53A7
S1133250FC4DF08282E0820FE1E0E20FF0E0EB53FC
S1133260FC4D3083215EDA019D91E82FF0E0EB53B1
S1133270FC4D9F7790838F5F2813F6CF2093822293
S1133280E091932B809182228E1781F080916A22A3
S1133290882361F081E08E0F8093932BF0E0EB5351
S11332A0FC4D8081F801808310926A2280916A2209
S11332B08823F1F33F5F435E5F4F303109F0BDCFA8
S11332C020918222E22FF0E0EB53FC4D84E98083CD
S11332D082E0820FE1E0E20FF0E0EB53FC4D10825C
S11332E0AEE8BBE2295F9D91E82FF0E0EB53FC4D83
S11332F09F7790838F5F2813F6CF20938222C0C0DC
S113330020E1AE014F5F5F4F60E070E080E50E9416
S1133310971F00E712E2DE01119620E832E2F8017D
S113332040E091918D91981341E0E217F307C9F7BA
S1133330411189C06894EE24E4F8F12CA701455F9B
S1133340574C2DE1B70180E50E94971FFDE1EF0E78
S1133350F11C20EEE21621E0F20681F725E04EE8AA
S11333605BE260EE71E080E50E94971F4BE158E359
S113337030E00F2EF3E9FF2EF02D60EA7AE0D80159
S11333808D918D0181508230F0F420918222E22FC0
S1133390F0E0EB53FC4DF08292E0920FE1E0E20F9B
S11333A0F0E0EB53FC4D3083215EDA018C918170A7
S11333B08D93E92FF0E0EB53FC4D80839F5F9213D4
S11333C0F5CF20938222E091932B809182228E1755
S11333D081F080916A22882361F081E08E0F8093CE
S11333E0932BF0E0EB53FC4D8081FB018083109222
S11333F06A2280916A228823F1F33F5F435E5F4F24
S1133400303109F0BCCF20918222E22FF0E0EB535F
S1133410FC4D84E9808382E0820FE1E0E20FF0E07A
S1133420EB53FC4D1082AEE8BBE2295F9D91E82F7F
S1133430F0E0EB53FC4D9F7790838F5F2813F6CF1A
S1133440209382221DC06FE270E280E090E00E942F
S11334502A216AEA70E281E090E00E942A2184E64F
S113346090E00E94690D0CC061E570E280E090E09C
S11334700E942A216BEB70E281E090E00E942A21F5
S1133480109223211092812261E570E280E090E0A5
S11334900E942A2164E670E281E090E00E942A21E1
S11334A06FE270E280E090E00E942A216091812224
S11334B0F1E16F9FB00111246A5D7D4D81E090E0E0
S11334C00E942A21E6E1FAE323818DEC289F912DC5
S11334D0112496959695969530E3390F3983990F73
S11334E0392F330F330F930F291B205D2A834AE3AF
S11334F04B832281289F912D11249695969596951C
S113350030E3390F3C83990F392F330F330F930F67
S1133510291B205D2D834E839181989F812D112439
S113352086958695869520E3280F2F83880F282F6C
S1133530220F220F820F981B905D9887198665E7EA
S113354070E280E090E00E942A21BE016F5F7F4F0D
S113355081E090E00E942A21DDC410922321109280
S1133560812261E570E280E090E00E942A2164E615
S113357070E281E090E00E942A216FE270E280E034
S113358090E00E942A216091812221E1629FB00192
S113359011246A5D7D4D81E090E00E942A21E6E1DC
S11335A0FAE323818DEC289F912D1124969596950D
S11335B0969530E3390F3983990F392F330F330F31
S11335C0930F291B205D2A834AE34B832281289F82
S11335D0912D112496959695969530E3390F3C8359
S11335E0990F392F330F330F930F291B205D2D8330
S11335F04E839181989F812D112486958695869579
S113360020E3280F2F83880F282F220F220F820FE9
S1133610981B905D9887198665E770E280E090E0DA
S11336200E942A21BE016F5F7F4F81E090E00E94DB
S11336302A210E940E076EC4012B09F06BC48091ED
S11336402321823009F066C48091922B882309F4E7
S113365061C4E0918122F0E0E257F44D81E080837F
S11336606FE270E280E090E00E942A2168E870E254
S113367081E090E00E942A2120918222E22FF0E052
S1133680EB53FC4D84E9808382E0820FE1E0E20F9A
S1133690F0E0EB53FC4D1082AEE8BBE2295F9D9154
S11336A0E82FF0E0EB53FC4D9F7790838F5F8213FC
S11336B0F6CF209382222EC4012B09F02BC48091D3
S11336C0812281508093812290912321913001F1B4
S11336D038F0923009F444C0933009F474C01AC429
S11336E0843018F083E0809381226FE270E280E0FE
S11336F090E00E942A216091812241E1649FB001FF
S113370011246A5D7D4D81E090E00E942A2102C46B
S11337108D3118F08CE18093812261E570E280E0C4
S113372090E00E942A216091812281E1689FB0018A
S113373011246C55744D81E090E00E942A216FE2BF
S113374070E280E090E00E942A2167E770E281E065
S113375090E00E942A21809181220E943D03DAC3D5
S1133760843018F083E08093812261E570E280E088
S113377090E00E942A216091812291E1699FB00129
S113378011246B537B4D81E090E00E942A216FE26B
S113379070E280E090E00E942A21E0918122F0E032
S11337A0E257F44D8081882339F068E870E281E0C3
S11337B090E00E942A21AEC369E970E281E090E0C2
S11337C00E942A21A7C3863020F085E080938122BD
S11337D009C090916D22911105C0843019F482E0E2
S11337E08093812261E570E280E090E00E942A21CA
S11337F060918122A1E16A9FB00111246F55724D3D
S113380081E090E00E942A2180918122882319F08E
S1133810853021F010C00E94EA237CC36FE270E27D
S113382080E090E00E942A2160E070E281E090E074
S11338300E942A216FC36FE270E280E090E00E9450
S11338402A2165EC70E281E090E00E942A2162C3A3
S1133850012B09F05FC3809181228F5F80938122C5
S1133860909123219130F9F038F0923009F442C05C
S1133870933009F471C04EC3843010F01092812249
S11338806FE270E280E090E00E942A216091812240
S1133890B1E16B9FB00111246A5D7D4D81E090E040
S11338A00E942A2137C38D3110F01092812261E5E4
S11338B070E280E090E00E942A2160918122E1E19F
S11338C06E9FB00111246C55744D81E090E00E940C
S11338D02A216FE270E280E090E00E942A2167E7EB
S11338E070E281E090E00E942A21809181220E946E
S11338F03D0310C3843010F01092812261E570E220
S113390080E090E00E942A2160918122F1E16F9F82
S1133910B00111246B537B4D81E090E00E942A2179
S11339206FE270E280E090E00E942A21E09181221F
S1133930F0E0E257F44D8081882339F068E870E2C2
S113394081E090E00E942A21E5C269E970E281E009
S113395090E00E942A21DEC2863018F01092812263
S113396009C090916D22911105C0833019F485E04E
S11339708093812261E570E280E090E00E942A2138
S11339806091812221E1629FB00111246F55724D33
S113399081E090E00E942A2180918122882319F0FD
S11339A0853021F010C00E94EA23B4C26FE270E2B5
S11339B080E090E00E942A2160E070E281E090E0E3
S11339C00E942A21A7C26FE270E280E090E00E9488
S11339D02A2165EC70E281E090E00E942A219AC2DB
S11339E0012B09F097C280912321823009F092C201
S11339F08091922B882309F48DC2E0918122F0E01A
S1133A00E257F44D10826FE270E280E090E00E9491
S1133A102A2169E970E281E090E00E942A218091E4
S1133A208122823018F0823021F033C00E941008C5
S1133A3030C0E0EAF2E28089877F808B2E2D30E06F
S1133A40F901EE0FFF1FEE0FFF1FEE0FFF1FE55FE3
S1133A50F44D97819923C4F49DE1929FF001939FC3
S1133A60F00D1124E55EF74C9685992369F0F90170
S1133A70E056FD4D908194FF07C09091902B9923BF
S1133A8019F088608093B0220E945D0381E08093E6
S1133A906F2220918222E22FF0E0EB53FC4D84E967
S1133AA0808382E0820FE1E0E20FF0E0EB53FC4D13
S1133AB01082AEE8BBE2295F9D91E82FF0E0EB5362
S1133AC0FC4D9F7790838F5F2813F6CF209382223B
S1133AD021C200EA12E20F2EF0E7EF2EF2E2FF2EEF
S1133AE0F02DD12C0F2EF2ECCF2EF02DD8018C918D
S1133AF0837FF80181938F01D7018D917D018230FD
S1133B00D9F48D2D0E945B038430B0F4E0918222BD
S1133B10AE2FB0E0AB53BC4DCC92A1E0AE0FB0E001
S1133B20AB53BC4D8C9383E08E0F80938222EE5F67
S1133B30F0E0EB53FC4D1082D394B0E1DB12D6CF0E
S1133B400E9410080E94EE030E945E0380E10E941E
S1133B50380681E080936F22DDC1012B09F086C015
S1133B60E0EAF2E280898F7B808B0E940E0785E079
S1133B7090E00E94690D85E090E00E94690D81E06B
S1133B8080936D2260E070E080E50E94961F809132
S1133B906D22882309F466C083E0809323218093F7
S1133BA0812261E570E280E090E00E942A21609128
S1133BB08122E1E16E9FB00111246F55724D81E0C5
S1133BC090E00E942A216FE270E280E090E00E947F
S1133BD02A2165EC70E281E090E00E942A21E091C4
S1133BE08222AE2FB0E0AB53BC4D88E98C93A1E0A8
S1133BF0AE0FB0E0AB53BC4D1C9283E08E0F8093AC
S1133C008222EE5FF0E0EB53FC4D81E080838091F3
S1133C10922B80930A2721E042E95BE264EE71E093
S1133C2080E50E94971F20918222E22FF0E0EB535F
S1133C30FC4D84E9808382E0820FE1E0E20FF0E052
S1133C40EB53FC4D1082AEE8BBE2295F9D91E82F57
S1133C50F0E0EB53FC4D9F7790838F5F8213F6CF98
S1133C602093822281E080936F2254C110926D22AE
S1133C7090918222E92FF0E0EB53FC4D88E9808398
S1133C80E1E0E90FF0E0EB53FC4D1082E2E0E90FD4
S1133C90F0E0EB53FC4D108280910A278093922B25
S1133CA0E3E0E90FF0E0EB53FC4D84E9808385E029
S1133CB0890FE4E0E90FF0E0EB53FC4D1082AEE82D
S1133CC0BBE22AE0290F9D91E82FF0E0EB53FC4D75
S1133CD09F7790838F5F2813F6CF20938222E0EAA8
S1133CE0F2E280898064808B81E080936F228091EE
S1133CF02321833009F00EC18091812283508230C8
S1133D0008F008C1109223211092812261E570E22B
S1133D1080E090E00E942A2164E670E281E090E075
S1133D200E942A216FE270E280E090E00E942A2142
S1133D3060918122F1E16F9FB00111246A5D7D4D94
S1133D4081E090E00E942A21E6E1FAE323818DECF0
S1133D50289F912D112496959695969530E3390FC9
S1133D603983990F392F330F330F930F291B922F58
S1133D70905D9A834AE34B832281289F912D1124DD
S1133D8096959695969530E3390F3C83990F392F84
S1133D90330F330F930F291B922F905D9D834E8316
S1133DA09181989F812D112486958695869520E38F
S1133DB0280F2F83880F282F220F220F820F981B82
S1133DC0892F805D8887198665E770E280E090E03E
S1133DD00E942A21BE016F5F7F4F81E090E00E9424
S1133DE02A2198C08E2D0E945B03AE2DB0E0FD0108
S1133DF0E056FD4D908195FF8DC0012B31F5FD01FD
S1133E00E056FD4D90619083AF56B24D1C928430C4
S1133E10C0F4E0918222AE2FB0E0AB53BC4D93ECE2
S1133E209C93A1E0AE0FB0E0AB53BC4D8C9383E008
S1133E308E0F80938222EE5FF0E0EB53FC4D81E025
S1133E40808381E080936F2265C0FD01EF56F24DBF
S1133E50208121115FC0A056BD4D9F7E9C9384306C
S1133E60B8F4E0918222AE2FB0E0AB53BC4D93EC9A
S1133E709C93A1E0AE0FB0E0AB53BC4D8C9383E0B8
S1133E808E0F80938222EE5FF0E0EB53FC4D1082A4
S1133E9081E080936F223EC0822F90E0FC01339733
S1133EA0E631F10510F00C94A1128827E954FE4F75
S1133EB08F4F0C949828F701EE0FFF1FEE0FFF1F92
S1133EC0EE0FFF1FE55FF44D8781882314F00C94F7
S1133ED0230F0C94F60EF701EE0FFF1FEE0FFF1FDA
S1133EE0EE0FFF1FE55FF44D8781882314F00C94D7
S1133EF0460F0C94F60E822F90E0FC013397E631C6
S1133F00F10510F00C94A1128827E353FE4F8F4F54
S1133F100C9498286196CDBFDEBFDF91CF911F919D
S1133F200F91FF90EF90DF90CF900895089508953A
S1133F309F92AF92BF92CF92DF92EF92FF920F9334
S1133F401F93CF93DF9381E090E00E94690DC6E058
S1133F50D6E06894FF24F5F8F8826894CC24C6F877
S1133F60C8826894DD24D3F8D8826894EE24E4F8F7
S1133F70E8826894992492F8988205E016E068949F
S1133F80AA24A1F8F801A082BB24B394B082F082E1
S1133F90F88281E090E00E94690DC882D882E882AC
S1133FA09882F801A082B082F08281E090E00E94C1
S1133FB07B0DF882C882D882E8829882F801A082B8
S1133FC0B082F08281E090E00E947B0DF88281E073
S1133FD090E00E947B0DC882D882E8829882F80122
S1133FE0A082B882F08281E090E00E947B0DF8828A
S1133FF0C882D882E8829882F801A082B882F082CE
S113400081E090E00E947B0DF882C882D882F8019A
S1134010E0829882A882B882F08281E090E00E94D7
S11340207B0DF882F801E082C882D082F08281E0C0
S113403090E00E947B0DF882F801F082CFE00F2E11
S1134040F6E0CF2EDC2CF02DD0E2F601F08281E0F8
S113405090E00E947B0DF801D083C150B1F7C6E017
S1134060D6E06894FF24F5F8F8826894DD24D6F845
S1134070D8826894EE24E3F8E8826894CC24C4F8E7
S1134080C8826894992492F898826894AA24A1F822
S1134090A882BB24B394B88205E016E0F801F0824C
S11340A081E090E00E947B0DF882D882E882F801DA
S11340B0C0829082A882B882F08281E090E00E945F
S11340C07B0DF882F801C082D882E082F08281E020
S11340D090E00E947B0DF882F801F082CFE00F2E71
S11340E0F6E0CF2EDC2CF02DD0E2F601F08281E058
S11340F090E00E947B0DF801D083C150B1F7C6E077
S1134100D6E010E218836894FF24F6F8F88208E0F9
S113411008836894EE24E4F8E8826894992492F879
S113412098826894AA24A1F8A882BB24B394B88284
S11341300F2EF5E0CF2EF6E0DF2EF02DF6011083E2
S113414081E090E00E947B0D1883F8820883E88266
S11341509882A882F601B082108381E090E00E94E8
S11341607B0D1883F601E082F8820083108381E0DE
S113417090E00E947B0D1883F6011083CFE00F2E90
S1134180F6E0CF2EDC2CF02DD0E2FD2E05E016E07B
S1134190F601F08281E090E00E947B0DF801D0836B
S11341A0C150B1F7C6E0D6E06894FF24F5F8F88270
S11341B06894DD24D6F8D8826894EE24E3F8E88283
S11341C06894CC24C4F8C8826894992492F898829C
S11341D06894AA24A1F8A882BB24B394B88205E009
S11341E016E0F801F08281E090E00E947B0DF882F5
S11341F0D882E882C882F8019082A082B882F082D4
S113420081E090E00E947B0DF882F801C082D882A0
S1134210E082F082CFE00F2EF6E0CF2EDC2CF02DE2
S1134220D0E2F601F08281E090E00E947B0DF8017B
S1134230D083C150B1F780E280930606DF91CF911D
S11342401F910F91FF90EF90DF90CF90BF90AF90B0
S11342509F9008952F923F924F925F926F927F9218
S11342608F929F92AF92BF92CF92DF92EF92FF9282
S11342700F931F93CF93DF931F92CDB7DEB75C01EB
S1134280FB019081992309F49DC04B016B01712CB2
S1134290F0E4F98305E016E06894332433F8689475
S11342A0FF24F5F8EF2C442443946894552451F8E2
S11342B06894662462F86894222424F88981E6E0EC
S11342C0F6E08083F8013082E082E6E0F6E0E08206
S11342D0F801E082F601808184FF03C0F801408286
S11342E003C0E6E0F6E0408285FF03C0F801508297
S11342F003C0E6E0F6E0508286FF03C0F801608266
S113430003C0E6E0F6E0608288231CF4F801208212
S113431003C0E6E0F6E0208281E090E00E947B0D9D
S1134320A114B10429F480E4E6E0F6E0808307C038
S1134330E1E0AE16B10419F480E4F8018083E6E00C
S1134340F6E03082F801F08281E090E00E947B0D7B
S1134350E6E0F6E0F082F601808180FF03C0F80118
S1134360408203C0E6E0F6E0408281FF03C0F8012A
S1134370508203C0E6E0F6E0508282FF03C0F801F9
S1134380608203C0E6E0F6E0608283FF03C0F801C8
S1134390208203C0E6E0F6E0208281E090E00E9403
S11343A07B0DF801F08281E090E00E947B0DE6E055
S11343B0F6E0F08273946401C70CD11CF60180818D
S11343C081117CCF0F90DF91CF911F910F91FF90BE
S11343D0EF90DF90CF90BF90AF909F908F907F90A1
S11343E06F905F904F903F902F900895CF93DF93FD
S11343F0E6E2F6E084E0808392E0908391E090939B
S1134400460698E090838093450682E38150F1F755
S113441082E380930925EBEFF9E320E030E0A8EE96
S1134420B7E051E0422F8C91B901837090E0022EE5
S113443002C0959587950A94E2F780FD18C08081A3
S1134440882344F181508083882324F5C0918B2BE9
S113445081E08C0F80938B2BD0E0CC0FDD1FC65FE7
S1134460DA4D4068842F90E08883998313C080815B
S1134470882384F45083C0918B2B81E08C0F80932C
S11344808B2BD0E0CC0FDD1FC65FDA4D6068716006
S1134490688379832F5F3F4F31962830310511F6B9
S11344A0DF91CF9108952F923F924F925F926F9236
S11344B07F928F929F92AF92BF92CF92DF92EF92B0
S11344C0FF921F93CF93DF93CDB7DEB72897CDBF6D
S11344D0DEBF813021F498E09093250603C098E074
S11344E09093260694E090934606482E512C440C53
S11344F0551C440C551C440C551C9201220F331FAF
S1134500220F331F220F331F2D833E83212C312C86
S11345100F2EF6E28F2EF6E09F2EF02D6894FF24E6
S1134520F2F80F2EF5E26F2EF6E07F2EF02D689450
S1134530CC24C1F8DD24D3940F2EF8EEAF2EF7E08F
S1134540BF2EF02D52E309C1112319F0F301F082BB
S113455002C0F401F082EE2019F0F301C08202C01F
S1134560F401C082442321F0E5E4F6E0D08203C0E4
S1134570E6E4F6E0D08222E3EF81F8852150F1F7FA
S1134580EF83F88750930925F501208121FF06C0A8
S11345902091203A21602093203A05C02091203AAE
S11345A02E7F2093203AF501208120FF06C0209120
S11345B0203A22602093203A05C02091203A2D7F92
S11345C02093203AE8E6F6E0208123FF06C02091FC
S11345D0203A24602093203A05C02091203A2B7F72
S11345E02093203AE8E6F6E0208122FF06C02091DD
S11345F0203A28602093203A05C02091203A277F52
S11346002093203AE8E6F6E02081222334F4209136
S1134610203A20612093203A05C02091203A2F7E31
S11346202093203AE8E6F6E0208126FF06C0209198
S1134630203A20622093203A05C02091203A2F7D11
S11346402093203AE8E6F6E0208125FF06C0209179
S1134650203A20642093203A05C02091203A2F7BF1
S11346602093203AE8E6F6E0208124FF06C020915A
S1134670203A20682093203A05C02091203A2F77D1
S11346802093203A22E3EF81F8852150F1F7EF835C
S1134690F887509309252091203A30E0082E02C073
S11346A0359527950A94E2F720FD23C0B201680FDF
S11346B0791F2C912223F4F121502C932223D4F539
S11346C020918B2B31E0320F30938B2B30E0220F73
S11346D0331F265F3A4D660F771F660F771F660FED
S11346E0771FE981FA816E2B7F2BF9016083718337
S11346F021C0B201680F791FEF81F8852081222340
S1134700CCF4D08220918B2B31E0320F30938B2B61
S113471030E0220F331F265F3A4D660F771F660F76
S1134720771F660F771FEB81FC816E2B7F2BF901BE
S113473060837183019618962F813885285F3F4FD7
S11347402F8338878830910509F0FECE3FEF231A76
S1134750330A68E026163104C9F0422D6D817E814A
S1134760620D731D655F744DDB0180E090E0122DD6
S11347701170E22DE270EE2E4470910131602B83B2
S11347803C8329823A826F837887DECE2896CDBF18
S1134790DEBFDF91CF911F91FF90EF90DF90CF901C
S11347A0BF90AF909F908F907F906F905F904F904D
S11347B03F902F9008950E94F62182E38150F1F7F3
S11347C082E38093092580E00E94532281E00E94C5
S11347D053220895CF93DF93CDB7DEB76197CDBF52
S11347E0DEBF83E5898384E78A838DE48B838FE648
S11347F08C8384E68D838AE38E832091C2222A30BF
S113480058F08DEC289F812D1124869586958695E8
S1134810805D8F8387E001C086E0E1E0F0E0EC0F8B
S1134820FD1FE80FF11D9DEC299F912D11249695F4
S113483096959695990F392F330F330F930F291BA4
S1134840205D208391E0980FE1E0F0E0EC0FFD1F84
S1134850E90FF11D90E2908392E0980FE1E0F0E01F
S1134860EC0FFD1FE90FF11D94E5908393E0980F81
S1134870E1E0F0E0EC0FFD1FE90FF11D95E69083F8
S113488094E0980FE1E0F0E0EC0FFD1FE90FF11D5B
S11348909CE6908395E0980FE1E0F0E0EC0FFD1FBB
S11348A0E90FF11D93E6908396E0980FE1E0F0E0C4
S11348B0EC0FFD1FE90FF11D9FE6908328E0280F00
S11348C097E0980FE1E0F0E0EC0FFD1FE90FF11D18
S11348D09AE390839091C3229A3070F0FE01E20F24
S11348E0F11D2DEC929F212D1124269526952695B8
S11348F0205D218329E0280FE1E0F0E0EC0FFD1FAB
S1134900E20FF11D8DEC989F812D112486958695DB
S11349108695880F382F330F330F830F981B905DC4
S113492090832F5FE1E0F0E0EC0FFD1FE20FF11D3B
S113493010826FE270E280E090E00E942A21BE01C2
S11349406F5F7F4F81E090E00E942A216196CDBF86
S1134950DEBFDF91CF9108950F931F93CF93DF9321
S113496020912421E22FF0E0EA5DFE4DE081A1E0F8
S1134970A20FB0E0AA5DBE4D3C9193E0920F9093DC
S11349802421A2E0A20FB0E0AA5DBE4DCC914E2F2F
S113499050E0FA01E058F109E336F10508F0D4C11A
S11349A08827ED51FE4F8F4F0C949828E0918B2B64
S11349B081E08E0F80938B2BF0E0EE0FFF1FE65FFC
S11349C0FA4DA32FB0E0AA0FBB1FAA0FBB1FAA0F5B
S11349D0BB1FA360A083B183B7C1E0918B2B81E09F
S11349E08E0F80938B2BF0E0EE0FFF1FE65FFA4DE6
S11349F0A32FB0E0AA0FBB1FAA0FBB1FAA0FBB1F98
S1134A00A260A083B183A0C181E080931B3A9CC1C2
S1134A1010921B3A99C1E6E1FAE3138212821182E1
S1134A20108292C18DE1389FD0011124FD01E55E11
S1134A30F74CC083A45EB74C8FE1820FE92FF0E0FE
S1134A40EA5DFE4D30813D939F5F9813F7CF8093CD
S1134A5024217AC1C0938E2BAFE8BBE287E0820F9A
S1134A60E92FF0E0EA5DFE4D20812D939F5F8913CD
S1134A70F7CF8093242168C140918222E42FF0E093
S1134A80EB53FC4D8AE9808392E0940FE1E0E40F5C
S1134A90F0E0EB53FC4D1082A0E0B0E22EE130E2F6
S1134AA08D91E92FF0E0EB53FC4D8F7780839F5F6E
S1134AB0A217B307A9F7405E4093822245C1209113
S1134AC08222E22FF0E0EB53FC4D83E9808382E005
S1134AD0820FE1E0E20FF0E0EB53FC4D30839DE107
S1134AE0399FD0011124A55EB74C215E9D91E82F1A
S1134AF0F0E0EB53FC4D9F7790838F5F8213F6CFEA
S1134B002093822221C120918222E22FF0E0EB53F4
S1134B10FC4D84E9808382E0820FE1E0E20FF0E063
S1134B20EB53FC4D1082AEE8BBE2295F9D91E82F68
S1134B30F0E0EB53FC4D9F7790838F5F8213F6CFA9
S1134B402093822201C140918222E42FF0E0EB53B2
S1134B50FC4D85E9808392E0940FE1E0E40FF0E0FE
S1134B60EB53FC4D1082A0E7B2E220E832E28D91D3
S1134B70E92FF0E0EB53FC4D8F7780839F5FA21702
S1134B80B307A9F74E5E40938222DEC020E140E7DE
S1134B9052E260E080E70E946B270E94C9278430BC
S1134BA009F4CBC00E94C9278F3FB9F7C6C08191D1
S1134BB08D932E173F07D9F709E012E3C0E0D0E048
S1134BC021E030E081E0C031D1050CF080E08823A1
S1134BD0D9F081E02130310509F080E08823A1F08B
S1134BE020E149E152E360E180E70E946B270E94E3
S1134BF0C927843039F00E94C9278F3FC1F722E0CA
S1134C0030E002C022E030E0C031D1051CF0F801F0
S1134C108089808321960F5F1F4FCD31D10591F696
S1134C202DE049E152E360E280E70E946B270E9495
S1134C30C927843021F00E94C9278F3FC1F725E09E
S1134C404EE85BE26DE280E70E946B270E94C92771
S1134C50843021F00E94C9278F3FC1F788EE9DEF71
S1134C600197F1F788EE9DEF8093A13A9093A23AD1
S1134C706BC0CC2309F468C0832F0E940E08E09116
S1134C808B2B91E09E0F90938B2BF0E0EE0FFF1F88
S1134C90E65FFA4D28E0829FC0011124836080837F
S1134CA0918352C0832F0E940E08CC23B9F0E09167
S1134CB08B2B91E09E0F90938B2BF0E0EE0FFF1F58
S1134CC0E65FFA4D90E0880F991F880F991F880FAF
S1134CD0991F876892608083918336C0E0918B2B03
S1134CE091E09E0F90938B2BF0E0EE0FFF1FE65F99
S1134CF0FA4D90E0880F991F880F991F880F991F0C
S1134D0087689360808391831FC0CC23E9F0832F4D
S1134D100E940E08E0918B2B91E09E0F90938B2BB9
S1134D20F0E0EE0FFF1FE65FFA4D28E0829FC0011E
S1134D30112482608083918307C0EBE1F8E3A9E149
S1134D40B2E328E338E333CFDF91CF911F910F9182
S1134D500895F89488E08093850683E08093A50AFB
S1134D60E0EAFAE08381807C8862838382E686833A
S1134D7084E987838481807E88618483789408951C
S1134D801F920F920FB60F92112408B60F9218BEFD
S1134D9009B60F9219BE0BB60F921BBE2F938F93B9
S1134DA09F93AF93BF93EF93FF938091A00A809357
S1134DB0B122882394F41092C423833919F08439DE
S1134DC029F008C09FE190936E2207C097E090936A
S1134DD06E2203C093E090936E22E091C42391E08D
S1134DE09E0F9093C423F0E0EC53FD4D80832091FB
S1134DF06E22921790F0222381F08091153AA4EC50
S1134E00B2E2280F9D91E82FF0E0EA5DFE4D908319
S1134E108F5F8213F7CF2093153AFF91EF91BF91E3
S1134E20AF919F918F912F910F900BBE0F9009BE60
S1134E300F9008BE0F900FBE0F901F9018951F92F1
S1134E400F920FB60F92112408B60F9218BE0BB62C
S1134E500F921BBE8F939F93EF93FF938091932B9D
S1134E6090918222891769F0E82FF0E0EB53FC4D12
S1134E709081992334F08F5F8093932B9093A00AB1
S1134E8003C081E080936A22FF91EF919F918F91FB
S1134E900F900BBE0F9008BE0F900FBE0F901F9087
S1134EA01895E8EEF0E28FEF84870190F081E02D11
S1134EB083E0838308951092A00488E28093A5047C
S1134EC088E78093A1041092A204E4EAF4E08081CC
S1134ED0816080830895E8EEF0E2128613861682DC
S1134EE01582408751872483A0EAB4E0A083B1836C
S1134EF0828363831486880F16968C931092A13A4A
S1134F001092A23A8091A13A9091A23A88399A4398
S1134F1080F48091A13A9091A23A01968093A13AAB
S1134F209093A23A8091A13A9091A23A88399A43F7
S1134F3080F30895E8EEF0E2108611861482178259
S1134F40428753872683A0EAB4E0A083B183828397
S1134F5063831486880F16968C931092A13A10924C
S1134F60A23A8091A13A9091A23A80329E4480F470
S1134F708091A13A9091A23A01968093A13A90939C
S1134F80A23A8091A13A9091A23A80329E4480F351
S1134F9008958091F42008951F920F920FB60F92F6
S1134FA0112408B60F9218BE09B60F9219BE0AB69C
S1134FB00F921ABE0BB60F921BBE2F933F934F93C3
S1134FC05F936F937F938F939F93AF93BF93CF938D
S1134FD0DF93EF93FF93E091E820F091E92084813F
S1134FE083FF03C00E94512774C086FF48C0848198
S1134FF084FF03C00E9451276CC08091F42081116A
S113500012C0A8EEB0E213968C911397878316967C
S11350108C91882321F081E08093F4205AC082E0AF
S11350208093F42056C0813061F4A8EEB0E2129669
S11350308C911297880F8160868383E01C968C93F1
S113504048C0823009F045C0A8EEB0E215968C91B4
S1135050159714969C911497891758F4ED01A88517
S1135060B98591E0980F9D83A80FB11D8C9187831A
S113507030C083E0838384E08093F4202AC08823B3
S113508034F58091F4208330F9F4A8EEB0E21A9656
S1135090CD91DC911B9717969C91179781E0890F0E
S11350A017968C9317972781C90FD11D28831696BD
S11350B09C91891718F482E083830BC087E0838373
S11350C085E08093F42005C00E94512702C00E940D
S11350D05127FF91EF91DF91CF91BF91AF919F91B4
S11350E08F917F916F915F914F913F912F910F908D
S11350F00BBE0F900ABE0F9009BE0F9008BE0F9012
S11351000FBE0F901F90189597FB072E16F400946E
S113511007D077FD09D00E94A12807FC05D03EF4F2
S1135120909581959F4F0895709561957F4F08954F
S1135130EE0FFF1F881F8BBF0790F691E02D1BBE5B
S11351401994AA1BBB1B51E107C0AA1FBB1FA617BA
S1135150B70710F0A61BB70B881F991F5A95A9F71C
S111516080959095BC01CD010895F894FFCF81
S113516E442652204169726C61622076322E3034AC
S113517E202D2030382F3230303600000000202011
S113518E20442652204169726C616220202000C0A6
S113519E002020496E697469616C697A696E6720B2
S11351AE2000436F6E666967206368616E6765648D
S11351BE0080005365637572697479206F6666208A
S11351CE20202000202020202020202020202020ED
S11351DE20202020008400546F67676C652062795C
S11351EE2053454C454354005965732020202020FC
S11351FE202020202020202000204E6F2020202040
S113520E202020202020202020004F74686572204A
S113521E436F6E6669672E20202000536176696E97
S113522E672E2E2E00507265737320456E74657250
S113523E2F45736320004D6F64756C652078783A42
S10B524E20787878202000008C
S9030000FC
