:100000000C946E020C9494020C9494020C9494023E
:100010000C9494020C9494020C9494020C94940208
:100020000C9494020C9494020C9494020C949402F8
:100030000C9494020C9494020C94FF0D0C94940272
:100040000C9494020C9494020C9494020C949402D8
:100050000C9494020C9494020C9494020C949402C8
:100060000C9494020C9494020C9494020C949402B8
:100070000C9494020C9494020C9494020C949402A8
:100080000C9494020C9494020C9494020C94940298
:100090000C9494020C9494020C9494020C94940288
:1000A0000C9494020C9494020C9494020C94940278
:1000B0000C9494020C9494020C942D290C949402A8
:1000C0000C9494020C9494020C9494020C94940258
:1000D0000C9494020C9494020C9494020C94940248
:1000E0000C9494020C9494020C94B1270C949402F6
:1000F0000C9413280C9494020C9494020C94940283
:100100000C9494020C9494020C9494020C94940217
:100110000C9494020C9494020C9494020C94940207
:100120000C9494020C9494020C9494020C949402F7
:100130000C9494020C9494020C9494020C949402E7
:100140000C9494020C9494020C9494020C949402D7
:100150000C9494020C9494020C9494020C949402C7
:100160000C9494020C9494020C9494020C949402B7
:100170000C9494020C9494020C9494020C949402A7
:100180000C9494020C9494020C9494020C94940297
:100190000C9494020C9494020C9494020C94940287
:1001A0000C9494020C9494020C9494020C94940277
:1001B0000C9494020C9494020C9494020C94940267
:1001C0000C9494020C9494020C9494020C94940257
:1001D0000C9494020C9494020C9494020C94940247
:1001E0000C9494020C9494020C9494020C94940237
:1001F0000C9494020C9494020C9494028B0E911122
:10020000D21244158920892059176D178920892019
:100210008920892089208920892089208920892096
:100220008920892089208920892089208920892086
:100230008920892089208920892089208920892076
:100240008920892089208920892089208920892066
:100250008920892089208920892089208920892056
:100260008920892089208920892089208920892046
:100270008920892089208920892089208920892036
:100280008920892089208920892089208920892026
:100290008920892089208920892089208920892016
:1002A0008920892089208920892089208920892006
:1002B00089208920892089208920892089208920F6
:1002C00089208920892089208920892089208920E6
:1002D00089208920892089208920892089208920D6
:1002E00089208920892089208920892089208920C6
:1002F000892089208920892089208920F2172019C6
:10030000431C571D8A1C201ECC1EDC1E2E202813C9
:1003100034133413281328133413341328134013BD
:1003200040132813281328132813401340132813AD
:10033000401340132813401328132813281328139D
:100340002813561356135613561356135613561393
:100350007E137E137E135B13631379137C137C135C
:100360007C137C137C137C137E135E135E13932526
:10037000A92597279727972797279727972797277D
:100380009727972797279727972797279727BF2557
:10039000C325C625CD25F3259727AB269727972775
:1003A000972797279727972797279727972797275D
:1003B000972797279727972797279727972797274D
:1003C000972797279727972797279727972797273D
:1003D0009727972732265D268426972797279727E2
:1003E00097270B26972797279727972797279727AA
:1003F000972797279727972797279727972797270D
:1004000097279727972797279727972797279727FC
:1004100097279727972797279727972797279727EC
:1004200097279727972797279727972797272E2745
:100430004A277D270C9440130C946D170C94A92522
:100440000C9491110C94201E0C940B260C947E138A
:100450000C94F2170C942E270C94431C0C947C13D0
:100460000C9489200C9434130C942E200C94F325B6
:100470000C9484260C94DC1E0C9479130C9497270E
:100480000C947D270C9493250C94CC1E0C94AB26D5
:100490000C948B0E0C9444150C944A270C94571D05
:1004A0000C9428130C94C3250C948A1C0C94BF251F
:1004B0000C94CD250C94C6250C9463130C94201930
:1004C0000C945D260C9459170C945B130C94D21267
:1004D0000C9432260C945E130C94561311241FBEF8
:1004E000CFEFCDBFDFE3DEBF00E00CBF18BE19BE0B
:1004F0001ABE1BBE10E2A0E0B0E2EEE4F3E500E0BD
:100500000BBF02C007900D92A83EB107D9F71BBEE2
:100510002AE3A8EEB0E201C01D92A53AB207E1F7C6
:100520000E94EE0B0C94A5290C94000090E0FC01B5
:10053000EE0FFF1FEE0FFF1FEE0FFF1FE35FF44DE7
:100540002781222364F42DE1289FF001299FF00DDB
:100550001124E35EF74C2281211127C02DC0FC013C
:10056000EE0FFF1FEE0FFF1FEE0FFF1FE35FF44DB7
:100570002681222364F02DE1289FF001299FF00DB0
:100580001124E35EF74C2081211111C015C02223F4
:1005900084F42DE1289FF001299FF00D1124E35EE2
:1005A000F74C2181211107C007C021E005C021E0DF
:1005B00003C020E001C021E0222319F1FC01EE0F6D
:1005C000FF1FEE0FFF1FEE0FFF1FE35FF44D2181B2
:1005D000222394F4FC01EE55FD4D208125FF0CC033
:1005E000E8E1FAE31382128211821082FC01E85CD6
:1005F000FD4C21E0208309C0FC01E85CFD4C108229
:1006000004C0FC01E85CFD4C108210921D3A80E0B1
:100610000BC0E82FF0E0E85CFD4C9081992319F0C5
:1006200091E090931D3A8F5F803198F3089540E0F8
:100630001BC0242F30E0F901EA5FF54C9081977FD1
:1006400090835DE1529FF001539FF00D1124E35E12
:10065000F74CE80FF11D5081552329F0F901EA5FAD
:10066000F54C986090834F5F403118F381E08093A0
:100670007122089580E001C08F5F8031E8F38FEF31
:10068000089580E001C08F5F8031E8F30895E2EAC9
:10069000F2E240894B7F408B50E080E064C0282F1D
:1006A00030E09DE1929FF001939FF00D1124E35EF5
:1006B000F74C978591110CC09DE1929FF001939F9B
:1006C000F00D1124E35EF74C9685992309F44AC096
:1006D000F901EE58FD4D90819150923008F042C0E2
:1006E000F901EE0FFF1FEE0FFF1FEE0FFF1FE35F7D
:1006F000F44D9781992324F1F901EE0FFF1FEE0FBE
:10070000FF1FEE0FFF1FE35FF44D968199235CF00E
:100710006DE1629FF001639FF00D1124E35EF74CE1
:10072000678961110DC09923ECF49DE1929FF0015E
:10073000939FF00D1124E35EF74C908D992391F077
:10074000F901EE0FFF1FEE0FFF1FEE0FFF1FE35F1C
:10075000F44D9181992334F4F901EE55FD4D9081CA
:1007600095FD51E08F5F803108F499CF552319F042
:1007700044604093B2228091B22282FF19C0E0917E
:100780008422A1E0AE0FF0E0E953FC4D80ED8083C0
:10079000E1E0EA0FB0E0A953BC4D81E08C9391E019
:1007A0009E0F90938422F0E0E953FC4D808317C0A4
:1007B000E0918422A1E0AE0FF0E0E953FC4D80ED22
:1007C0008083E1E0EA0FB0E0A953BC4D81E08C9357
:1007D0008E0F80938422F0E0E953FC4D108281E07B
:1007E000809371220895E2EAF2E240894E7F408BC5
:1007F00050E080E05FC0282F30E09DE1929FF00143
:10080000939FF00D1124E35EF74C9585992309F42D
:1008100050C0F901EE58FD4D90819150923008F092
:1008200048C0F901EE0FFF1FEE0FFF1FEE0FFF1F75
:10083000E35FF44D9781992324F1F901EE0FFF1F37
:10084000EE0FFF1FEE0FFF1FE35FF44D968199231C
:100850005CF06DE1629FF001639FF00D1124E35E97
:10086000F74C678961110DC099231CF59DE1929F9A
:10087000F001939FF00D1124E35EF74C908D9923C6
:10088000C1F0F901EE0FFF1FEE0FFF1FEE0FFF1F6C
:10089000E35FF44D9181992364F4F901EE55FD4D28
:1008A000908195FD03C092FD03C003C051E001C0DB
:1008B00051E08F5F803108F49ECF552319F04160DD
:1008C0004093B2228091B22280FF19C0E09184222D
:1008D000A1E0AE0FF0E0E953FC4D80ED8083E1E054
:1008E000EA0FB0E0A953BC4D1C9281E08E0F8093BB
:1008F0008422F0E0E953FC4D81E0808317C0E09151
:100900008422A1E0AE0FF0E0E953FC4D80ED80833E
:10091000E1E0EA0FB0E0A953BC4D1C9281E08E0FDC
:1009200080938422F0E0E953FC4D108281E08093B3
:100930007122089540E050E080E0E0C0282F30E0D0
:10094000F901EE58FD4D90819150923008F0D5C0DC
:10095000F901EE0FFF1FEE0FFF1FEE0FFF1FE35F0A
:10096000F44D97819923ECF59DE1929FF001939FBF
:10097000F00D1124E35EF74C9289992391F0F9016F
:10098000EE0FFF1FEE0FFF1FEE0FFF1FE35FF44D93
:100990009181992334F4F901EE55FD4D908195FD37
:1009A00051E09DE1929FF001939FF00D1124E35ED1
:1009B000F74C9589992309F4A0C0F901EE0FFF1FA8
:1009C000EE0FFF1FEE0FFF1FE35FF44D91819923A0
:1009D0000CF093C0F901EE55FD4D908195FD88C056
:1009E0008CC0F901EE0FFF1FEE0FFF1FEE0FFF1F70
:1009F000E35FF44D96819923ECF19DE1929FF00124
:100A0000939FF00D1124E35EF74C9089992391F0A8
:100A1000F901EE0FFF1FEE0FFF1FEE0FFF1FE35F49
:100A2000F44D9181992334F4F901EE55FD4D9081F7
:100A300095FD51E09DE1929FF001939FF00D1124EF
:100A4000E35EF74C9389992309F457C0F901EE0F3F
:100A5000FF1FEE0FFF1FEE0FFF1FE35FF44D9181AD
:100A600099230CF04AC0F901EE55FD4D908195FD9A
:100A700041C043C099230CF040C09DE1929FF0011A
:100A8000939FF00D1124E35EF74C9189992391F027
:100A9000F901EE0FFF1FEE0FFF1FEE0FFF1FE35FC9
:100AA000F44D9181992334F4F901EE55FD4D908177
:100AB00095FD51E09DE1929FF001939FF00D11246F
:100AC000E35EF74C94899923C1F0F901EE0FFF1F03
:100AD000EE0FFF1FEE0FFF1FE35FF44D918199238F
:100AE00064F4F901EE55FD4D908195FD05C005C0FA
:100AF00041E003C041E001C041E08F5F803108F474
:100B00001DCFE2EAF2E280898F7C808B552319F0B9
:100B100080628093B222442329F0E2EAF2E28089E3
:100B20008061808B8091B22285FF19C0E091842280
:100B3000A1E0AE0FF0E0E953FC4D84E88083E1E0F2
:100B4000EA0FB0E0A953BC4D1C9281E08E0F809358
:100B50008422F0E0E953FC4D81E0808317C0E091EE
:100B60008422A1E0AE0FF0E0E953FC4D84E88083DD
:100B7000E1E0EA0FB0E0A953BC4D1C9281E08E0F7A
:100B800080938422F0E0E953FC4D10828091B222E0
:100B900084FF19C0E0918422A1E0AE0FF0E0E95398
:100BA000FC4D85E88083E1E0EA0FB0E0A953BC4D3D
:100BB0001C9281E08E0F80938422F0E0E953FC4D7B
:100BC00081E0808317C0E0918422A1E0AE0FF0E0C5
:100BD000E953FC4D85E88083E1E0EA0FB0E0A953DA
:100BE000BC4D1C9281E08E0F80938422F0E0E9538B
:100BF000FC4D108281E0809371220895282F30E00F
:100C0000F901EE55FD4D90819D7F9083662309F497
:100C10004CC0F901EE0FFF1FEE0FFF1FEE0FFF1F7D
:100C2000E35FF44D478144238CF44DE1429FF00192
:100C3000439FF00D1124E35EF74C45814423A9F155
:100C4000F901EE55FD4D926090832FC0F901EE0F32
:100C5000FF1FEE0FFF1FEE0FFF1FE35FF44D4681F6
:100C600044238CF04DE1429FF001439FF00D11248D
:100C7000E35EF74C43814423C1F0F901EE55FD4D8D
:100C80009260908312C0442384F44DE1429FF001AE
:100C9000439FF00D1124E35EF74C4481442329F077
:100CA000F901EE55FD4D92609083F901E351F64C48
:100CB0001082F901EE55FD4D9081492F427091FF50
:100CC00010C09DE1929FF001939FF00D1124E35E0F
:100CD000F74C9185992329F0F901E351F64C9AE0FC
:100CE00090834423C9F0E0918422A1E0AE0FF0E0AC
:100CF000E953FC4D92E89083E1E0EA0FB0E0A9539C
:100D0000BC4D8C9381E08E0F80938422F0E0E953F8
:100D1000FC4D81E0808318C0E0918422A1E0AE0FF9
:100D2000F0E0E953FC4D93E89083E1E0EA0FB0E096
:100D3000A953BC4D8C9381E08E0F80938422F0E008
:100D4000E953FC4D81E0808381E080937122089516
:100D50001F93CF93DF93182FC82FD0E08DE18C9F86
:100D6000F0018D9FF00D1124E35EF74C848D81110D
:100D7000A5C08DE18C9FF0018D9FF00D1124E35EE5
:100D8000F74C87818823C1F19DE19C9FF0019D9FD5
:100D9000F00D1124E35EF74C9681992369F1FE0171
:100DA000EE0FFF1FEE0FFF1FEE0FFF1FE35FF44D6F
:100DB00081818823BCF4FE01EE55FD4D808185FFC5
:100DC00011C0FE01EA56F44D8081811179C061E0C5
:100DD000812F0E94FE0581E0FE01EA56F44D8083DA
:100DE00091E077C060E0812F0E94FE05FE01EA5687
:100DF000F44D108290E06DC0882361F19DE19C9FCD
:100E0000F0019D9FF00D1124E35EF74C9681911146
:100E100021C0FE01EE55FD4D808185FF11C0FE0110
:100E2000EA56F44D808181114DC061E0812F0E940E
:100E3000FE0581E0FE01EA56F44D808391E049C051
:100E400060E0812F0E94FE05FE01EA56F44D1082FB
:100E500090E03FC0811138C08DE18C9FF0018D9FE3
:100E6000F00D1124E35EF74C8681882379F1FE01B1
:100E7000EE0FFF1FEE0FFF1FEE0FFF1FE35FF44D9E
:100E8000818188238CF4FE01EA56F44D8081811122
:100E90001FC061E0812F0E94FE0581E0FE01EA563D
:100EA000F44D808391E015C060E0812F0E94FE0523
:100EB000FE01EA56F44D108290E00BC090E009C0AC
:100EC00091E007C091E005C090E003C090E001C050
:100ED00091E08DE18C9FF0018D9FF00D1124E35E78
:100EE000F74C80858823C1F0FE01EE55FD4D8081D1
:100EF00082FF09C061E0812F0E94FE05CA56D44DD1
:100F000081E0888309C0911107C060E0812F0E94B1
:100F1000FE05CA56D44D1882DF91CF911F910895D6
:100F200020E027C04091B22280E890E0022E02C06B
:100F3000959587950A94E2F750E084239523892BB1
:100F400021F088E08093450603C088E08093460640
:100F500080E18093450610920B2503C08F5F80933C
:100F60000B2580910B258530C8F380E180934606E0
:100F70002F5F2830B8F240E08CC08091252181306D
:100F8000D9F5692F28E030E0092E02C03595279564
:100F90000A94E2F720FF30C0A42FB0E0E7E0F0E0D1
:100FA000EA1BFB0BEA5FF54C208130E0092E02C002
:100FB000359527950A94E2F720FF04C088E08093D6
:100FC000450603C088E080934606EFE0F0E0EA1BA8
:100FD000FB0BEA5FF54C208130E002C03595279588
:100FE0006A95E2F720FF04C080E28093450634C092
:100FF00080E28093460630C0642F70E0E7E0F0E0C6
:10100000E61BF70BEE55FD4D2081A92F30E0092E90
:1010100002C0359527950A94E2F720FF04C088E0C6
:101020008093450603C088E080934606EFE0F0E039
:10103000E61BF70BEE55FD4D208130E002C03595E3
:101040002795AA95E2F720FF04C080E28093450629
:1010500003C080E280934606E5E4F6E080E1808309
:1010600080E4808310920B2503C08F5F80930B2553
:1010700080910B258530C8F3E6E4F6E080E18083BB
:1010800080E480839F5F01C090E0963008F475CFC4
:101090004F5F4830C8F381E08093260610920B25FD
:1010A00003C08F5F80930B2580910B258530C8F39B
:1010B00081E08093250682E08093460610920B25FE
:1010C00003C08F5F80930B2580910B258530C8F37B
:1010D00082E080934506089580E090E030E018C0FB
:1010E000FC01EE58FD4D2081213089F4FC01EE0F0A
:1010F000FF1FEE0FFF1FEE0FFF1FE35FF44D278171
:1011000022232CF4FC01E75FFD4C2081322B019659
:10111000803191052CF3E0918422A1E0AE0FF0E044
:10112000E953FC4D80ED8083E1E0EA0FB0E0A95384
:10113000BC4D82E08C9381E08E0F80938422F0E09E
:10114000E953FC4D3083089580E001C08F5F80310A
:10115000E8F38FEF0895E2EAF2E240894D7F408B99
:1011600050E080E011C0282F30E0F901EE55FD4D30
:10117000908192FF08C0F901EE58FD4D9081915089
:10118000923008F451E08F5F803168F3809119321A
:10119000811151E0552339F08091912B882319F06A
:1011A00042604093B222E2EAF2E28089877F808B3C
:1011B00080E02BC0282F30E0F901EE55FD4D9081E5
:1011C00093FF22C0F901EE0FFF1FEE0FFF1FEE0F7E
:1011D000FF1FE35FF44D47814423B4F44DE1429F88
:1011E000F001439FF00D1124E35EF74C2685222386
:1011F00059F094FF09C09091922B992329F0E2EACB
:10120000F2E290899860908B8F5F803198F281E054
:101210008093712208951F93CF93DF9383EF91E022
:101220000197F1F700C00000E1E0F6E08FE780836E
:1012300080E8808383E08093E2079CEF90936206CE
:10124000A1E2B6E09EE09C93C1E4D6E095E09883ED
:10125000E2E8F6E094E0908398E0909381069AE7C4
:10126000988391E09C9380830E949A270E94AE20ED
:101270002FB7E0E5F0E0808181608083E8E6F0E070
:1012800080818E7F80838091510080FFFCCFE0E5DC
:10129000F0E0858198ED94BF82E185838081806153
:1012A0008083E0E4F0E0818180788C6094BF81836A
:1012B0008091510084FFFCCFE0E4F0E08081887FE2
:1012C000846098ED94BF8083E0E5F0E08081817FC9
:1012D0008083E0EBF0E08481807F84832FBF83EF05
:1012E00091E00197F1F700C00000109225211092C3
:1012F000193220E00CC0822F90E0FC01EE55FD4D2C
:1013000030E13083FC01EA5FF54C10822F5F203121
:1013100090F380E48093B2220E949007EEE1FAE31A
:101320001382128211821082E8E1FAE313821282A0
:101330001182108220E01FC0822F90E0FC01E85C47
:10134000FD4C1082FC01E351F64C1082FC01EC5480
:10135000FD4D1082FC01EB5EFE4D1082FC01ED564E
:10136000F24D1082FC01EA56F44D1082FC01E75F59
:10137000FD4C10822F5F2031F8F210921D3A10922E
:1013800083221092173A10922621109284221092F2
:10139000952B1092C6231092702281E080936C22CC
:1013A0001092822210921A3210926E2210922721ED
:1013B00080938F2B10928E2B10926D2210926F22A1
:1013C0000E94EB0D6EE170E281E090E00E94392214
:1013D0006FE270E280E090E00E94392261E370E207
:1013E00081E090E00E9439221092C5221092C4221E
:1013F0000E94C828E2EAF0E08081816080837894CE
:1014000020E142E752E260E080E70E9401290E9469
:101410002A29853021F00E942A298F3FC1F72DE12A
:1014200048EF50E260E180E70E9401290E942A29EA
:10143000853021F00E942A298F3FC1F780E090E09B
:1014400009C0FC01E850FF4D2081FC01E35EF74C30
:10145000208301968E319105A4F325E040E95BE2FB
:101460006DE280E70E9401290E942A29853021F03F
:101470000E942A298F3FC1F78AE090E00E94450E22
:1014800020E014C0E22FF0E0EE0FFF1FEE0FFF1F71
:10149000EE0FFF1FE35FF44DE80FF11D91E0908325
:1014A0008F5F01C080E0883068F32F5F2031D0F378
:1014B00080E007C0E82FF0E0E350F64C91E0908325
:1014C0008F5F8830B8F38AE090E00E94450EC0E05C
:1014D00007C080E00E94482381E00E944823CF5F3C
:1014E000C436B8F310928D2B1092F72010E080C014
:1014F000C12FD0E0FE01EE0FFF1FEE0FFF1FEE0F1A
:10150000FF1FE35FF44D8481882314F080E001C065
:1015100082E0FE01EE0FFF1FEE0FFF1FEE0FFF1F19
:10152000E35FF44D958199230CF48160FE01EE5840
:10153000FD4D90818917D1F1FE01EE58FD4D80835C
:101540006FE270E280E090E00E94392262E470E293
:1015500081E090E00E94392284E190E00E94450EF3
:101560008DE18C9FF0018D9FF00D1124E35EF74C0F
:1015700081E08083118212828383148215828683A4
:101580001782108611861286138614861586168693
:101590001786108A118A128A138A148A158A168A63
:1015A000178A108E118E128E138E148EFE01EE5835
:1015B000FD4D80818230D9F48DE18C9FF0018D9FAB
:1015C000F00D1124E35EF74C128281E08383848363
:1015D0001582168287831186158616861786128ACB
:1015E000158A178A108E118E128E138E148E1F5F1D
:1015F000103108F47DCF10E068C0C12FD0E0FE01AB
:10160000EE55FD4D10828DE18C9FF0018D9FF00D08
:101610001124E35EF74C8689882309F451C080E2E7
:10162000FE01EE55FD4D80838DE18C9FF0018D9F75
:10163000F00D1124E35EF74C8781882379F08DE16A
:101640008C9FF0018D9FF00D1124E35EF74C868195
:10165000811104C061E0812F0E94FE05FE01EE0FA2
:10166000FF1FEE0FFF1FEE0FFF1FE35FF44D8181A1
:10167000882304F58DE18C9FF0018D9FF00D1124DE
:10168000E35EF74C8781882379F08DE18C9FF00130
:101690008D9FF00D1124E35EF74C8681882321F0A5
:1016A00061E0812F0E94FE05CE55DD4D888181606D
:1016B00088830AC0CE55DD4D88818061888304C04F
:1016C000CE55DD4D80E188831F5F103108F495CF42
:1016D00080E48093B22204C0812F0E9496021F5F93
:1016E0001031D0F30E949A040E94F3030E94470332
:1016F0000E94AB080E94900780E016C0E82FF0E03F
:10170000EE58FD4D9081913019F0923039F00BC0B8
:101710009091C4229F5F9093C42205C09091C522EE
:101720009F5F9093C5228F5F803140F361E570E247
:1017300080E090E00E9439226EE170E281E090E06A
:101740000E9439220E94A62488EE93E00E94450E52
:10175000E6E6F6E081E0808382E0808384E08083B7
:1017600088E0808380E180936506809148068374D9
:1017700079F481E08093942B6FE270E280E090E056
:101780000E94392263E570E281E090E00E943922F4
:1017900082E390E00E94450E61E570E280E090E017
:1017A0000E94392264E670E281E090E00E943922D2
:1017B0006FE270E280E090E00E9439226091832223
:1017C00091E1699FB0011124685D7D4D81E090E059
:1017D0000E943922DF91CF911F910895CF93DF931B
:1017E000CDB7DEB72997CDBFDEBF0E940B09E8E178
:1017F000FAE323818DEC289F912D112496959695DF
:10180000969530E3390F3983990F392F330F330F02
:10181000930F291B922F905D9A834AE34B83228179
:10182000289F912D112496959695969530E3390F22
:101830003C83990F392F330F330F930F291B922FAE
:10184000905D9D834E839181989F812D1124869573
:101850008695869520E3280F2F83880F282F220F47
:10186000220F820F981B892F805D888765E770E2C1
:1018700080E090E00E9439221986BE016F5F7F4FA1
:1018800081E090E00E9439221092952B109226213F
:101890001092173AE7ECF3E284E9808382E08093C8
:1018A0008422118280E011C0E091842291E09E0F99
:1018B00090938422F0E0A82FB0E0A057B44D9C9103
:1018C000E953FC4D9F7790838F5F853068F380915B
:1018D0008422882369F080916C22882349F081E07A
:1018E0008093952B8091C7238093A00A10926C223D
:1018F00084E690E00E94450E20E046C0A09184223C
:10190000E1E0EA0FB0E0A953BC4D83E98C9381E09C
:101910008E0F80938422F0E0E953FC4D208390E009
:1019200016C08DE1289FF0011124E35EF74CE90F0A
:10193000F11D808181708083E091842231E03E0F2F
:1019400030938422F0E0E953FC4D80839F5F9D310A
:1019500040F380918422E091952B8E1781F0809145
:101960006C22882361F081E08E0F8093952BF0E04C
:10197000E953FC4D80818093A00A10926C228091E3
:101980006C228111FCCF2F5F203108F4B7CF8AE0A1
:1019900090E00E94450E1092952B10928422109296
:1019A00026211092173AF12C79C00F2D10E0F80182
:1019B000E351F64C8081882381F08150F801E35196
:1019C000F64C8083811109C0F801EE55FD4D8081F0
:1019D0008D7F808381E080937122F801EC54FD4D6E
:1019E0008081882381F08150F801EC54FD4D808383
:1019F000811109C0F801EE55FD4D80818D7F8083F6
:101A000081E080937122F801EB5EFE4D8081882396
:101A100091F08150F801EB5EFE4D808381110BC087
:101A2000F801EE55FD4D8081846080830E94AB08F3
:101A300081E080937122F801ED56F24D8081882378
:101A400061F18150F801ED56F24D8083811125C07E
:101A50008F2D0E943A03F801EE55FD4D90819F7E37
:101A600090838430B8F4E0918422A1E0AE0FF0E0DE
:101A7000E953FC4D93EC9083E1E0EA0FB0E0A95309
:101A8000BC4D8C9381E08E0F80938422F0E0E9536B
:101A9000FC4D108281E080937122F394EFE0EF150A
:101AA00008F083CF80917122882321F01092712257
:101AB0000E9490079091193A80911F3A981709F463
:101AC0004EC008E11AE3F80133818DEC389F212DD7
:101AD000112426952695269540E3420F4983220F2F
:101AE000422F440F440F240F321B305D3A835AE3D8
:101AF0005B833281389F212D1124269526952695CA
:101B000040E3420F4C83220F422F440F440F240F17
:101B1000321B305D3D835E83989F812D1124869515
:101B20008695869520E3280F2F83880F282F220F74
:101B3000220F820F981B905D9887198665E770E2E7
:101B400080E090E00E943922BE016F5F7F4F81E00C
:101B500090E00E943922F801818180931F3A0E940F
:101B6000932480918D2BE091F7208E1769F081E00E
:101B70008E0F8093F720F0E0EE0FFF1FE45FFA4D29
:101B8000808191810E94570E81E08093932B9091E8
:101B9000173A8091262198130E946C258091842207
:101BA000E091952B8E1709F4FECE80916C2288234C
:101BB00009F4F9CE81E08E0F8093952BF0E0E95384
:101BC000FC4D80818093A00A10926C228091A10A22
:101BD00085FFFCCFE8CEF89483E08093000882E094
:101BE000809306088DE59AE5809326089093270850
:101BF000E2EAF0E0808182608083789408951F9209
:101C00000F920FB60F92112408B60F9218BE0BB6A2
:101C10000F921BBE8F93EF93FF9380911C3A8F5FBF
:101C200080931C3A8A3010F010921C3A80911C3A32
:101C300081111FC080911D3A8823D9F0E8E1FAE3B1
:101C40008081865F80838B35A0F0108281818F5FD9
:101C500081838C3370F0118282818F5F82838C3319
:101C600040F0128283818F5F8383883110F010925D
:101C70001B3AFF91EF918F910F900BBE0F9008BE12
:101C80000F900FBE0F901F90189541E050E00BC0D1
:101C90002F5F3F4F02C020E030E0293E63E036076F
:101CA000BCF34F5F5F4F84179507ACF708958F9291
:101CB0009F92AF92BF92CF92DF92EF92FF920F93DB
:101CC0001F93CF93DF93CDB7DEB76197CDBFDEBF54
:101CD000282F2778AC0156954795569547955695E8
:101CE0004795342F3F70E32E8C01002711708778C1
:101CF00092708738924009F428E8822F90E0893862
:101D0000910510F00C948920FC018827E250FF4FC8
:101D10008F4F0C94882980912521813011F40C94E7
:101D20008920F12CF701EE58FD4D8081813029F09A
:101D3000823009F44FC20C948920012B09F0AAC10A
:101D4000F701EE0FFF1FEE0FFF1FEE0FFF1FE35F08
:101D5000F44D878188230CF053C08DE18E9DF001F6
:101D60008F9DF00D1124E35EF74C8485882309F4E0
:101D700047C00F2EF2EACF2EF2E2DF2EF02D8701C0
:101D80000E551D4DF80180818C6080830E94F30305
:101D9000F6018089877F808BF801908190FF04C0D5
:101DA000F8019061908320C0F701EE0FFF1FEE0F46
:101DB000FF1FEE0FFF1FE35FF44D27812223A4F4E2
:101DC0002DE12E9DF0012F9DF00D1124E35EF74CC7
:101DD0002685222349F094FF07C09091922B9923E6
:101DE00019F088608093B22211E0F701E75FFD4CA3
:101DF00010830E946C080E94410310937122C6C098
:101E0000F701EE0FFF1FEE0FFF1FEE0FFF1FE35F47
:101E1000F44D868188230CF45CC09DE19E9DF00109
:101E20009F9DF00D1124E35EF74C9285992309F4F0
:101E300050C0F701EE55FD4D80818C6080830E947B
:101E4000F3038DE18E9DF0018F9DF00D1124E35E73
:101E5000F74C8789882309F499C0E2EAF2E2808985
:101E6000877F808BF701EE55FD4D808180FF05C097
:101E7000F701EE55FD4D80618083F701EE0FFF1FE6
:101E8000EE0FFF1FEE0FFF1FE35FF44D86818823E7
:101E9000D4F08DE18E9DF0018F9DF00D1124E35E55
:101EA000F74C8685882379F0F701EE55FD4D80814A
:101EB00084FF09C08091922B882329F0E2EAF2E2A4
:101EC00080898860808B0E94410381E08093712229
:101ED0005DC088230CF05AC08DE18E9DF0018F9D6E
:101EE000F00D1124E35EF74C8385882309F44EC07E
:101EF000F701EE55FD4D80818C6080830E94F303D5
:101F00008DE18E9DF0018F9DF00D1124E35EF74C65
:101F1000808D8823D9F1E2EAF2E28089877F808B85
:101F2000F701EE55FD4D808180FF05C0F701EE55AC
:101F3000FD4D80618083F701EE0FFF1FEE0FFF1F45
:101F4000EE0FFF1FE35FF44D86818823D4F48DE10B
:101F50008E9DF0018F9DF00D1124E35EF74C868578
:101F6000882379F0F701EE55FD4D808184FF09C08B
:101F70008091922B882329F0E2EAF2E2808988603E
:101F8000808B0E94410381E080937122F701EE0F64
:101F9000FF1FEE0FFF1FEE0FFF1FE35FF44D878162
:101FA00088230CF59DE19E9DF0019F9DF00D11246D
:101FB000E35EF74C918D9923B1F0E0918D2B81E098
:101FC0008E0F80938D2BF0E0C701880F991F880F2B
:101FD000991F880F991F8360EE0FFF1FE45FFA4D72
:101FE0008083918353C0F701EE0FFF1FEE0FFF1F99
:101FF000EE0FFF1FE35FF44D968199231CF12DE155
:102000002E9DF0012F9DF00D1124E35EF74C228DE3
:102010002223C1F08823B4F0E0918D2B81E08E0F54
:1020200080938D2BF0E0C701880F991F880F991FAF
:10203000880F991F8360EE0FFF1FE45FFA4D8083C6
:10204000918324C0992314F59DE19E9DF0019F9DED
:10205000F00D1124E35EF74C938D9923B9F088239A
:10206000ACF0E0918D2B81E08E0F80938D2BF0E012
:10207000C701880F991F880F991F880F991F8360C8
:10208000EE0FFF1FE45FFA4D808391830E94AB083F
:102090000C948920F701EE0FFF1FEE0FFF1FEE0FCC
:1020A000FF1FE35FF44D878188237CF58DE18E9DD2
:1020B000F0018F9DF00D1124E35EF74C8485882399
:1020C00021F1F701EE55FD4D9081892F837F8083AB
:1020D00095FF11C0F701EE0FFF1FEE0FFF1FEE0F70
:1020E000FF1FE35FF44D918199232CF4F701EE5526
:1020F000FD4D8F7E8083F701E75FFD4C10820E94CB
:102100006C0881E0809371225FC0F701EE0FFF1F22
:10211000EE0FFF1FEE0FFF1FE35FF44D8681882354
:102120004CF19DE19E9DF0019F9DF00D1124E35E19
:10213000F74C92859923F1F0F701EE55FD4D908112
:10214000892F837F808395FF11C0F701EE0FFF1F5A
:10215000EE0FFF1FEE0FFF1FE35FF44D91819923F8
:102160002CF4F701EE55FD4D8F7E808381E0809346
:1021700071222AC0882344F58DE18E9DF0018F9D48
:10218000F00D1124E35EF74C83858823E9F0F70115
:10219000EE55FD4D9081892F837F808395FF11C07F
:1021A000F701EE0FFF1FEE0FFF1FEE0FFF1FE35FA4
:1021B000F44D918199232CF4F701EE55FD4D8F7E5E
:1021C000808381E0809371220E94F3030E94AB0818
:1021D0000C948920012B09F07BC0F701EE0FFF1F43
:1021E000EE0FFF1FEE0FFF1FE35FF44D8681882384
:1021F0000CF19DE19E9DF0019F9DF00D1124E35E89
:10220000F74C92859923B1F0E0918D2B81E08E0FF0
:1022100080938D2BF0E0C701880F991F880F991FBD
:10222000880F991F8260EE0FFF1FE45FFA4D8083D5
:1022300091834AC088230CF58DE18E9DF0018F9D1E
:10224000F00D1124E35EF74C83858823B1F0E09113
:102250008D2B81E08E0F80938D2BF0E0C701880FCE
:10226000991F880F991F880F991F8260EE0FFF1F1B
:10227000E45FFA4D8083918327C0F701EE0FFF1FC3
:10228000EE0FFF1FEE0FFF1FE35FF44D87818823E2
:10229000DCF48DE18E9DF0018F9DF00D1124E35E45
:1022A000F74C8485882381F0F701EE55FD4D808140
:1022B0008C60808380FD05C0F701EE55FD4D806187
:1022C000808381E0809371220E94AB080C94892066
:1022D000F701EE0FFF1FEE0FFF1FEE0FFF1FE35F73
:1022E000F44D87818823CCF48DE18E9DF0018F9D84
:1022F000F00D1124E35EF74C8485882371F0F7011B
:10230000EE55FD4D808180FF08C0F701EE55FD4D73
:10231000837E808381E0809371220E94AB080C94BD
:102320008920CE2CD12CF601EE58FD4D80818130D4
:1023300029F0823009F4ACC00C948920012B09F0FB
:1023400063C0F601EE55FD4D808185FF3FC08F01D2
:10235000816080830E949A048E2D0E949602F8016B
:102360008081837F80839091902B9923D9F0F6010F
:10237000EE0FFF1FEE0FFF1FEE0FFF1FE35FF44D89
:10238000918199237CF485FD0AC00CC0E82FF0E010
:10239000EE55FD4D9081937F90838F5F01C080E06B
:1023A0008031A0F30E94AB080E94F3030E94470310
:1023B0008E2D0E94A806F601EE55FD4D80818F7E80
:1023C000808381E0809371220C9489208DE18C9D23
:1023D000F0018D9DF00D1124E35EF74C868188237A
:1023E00071F08DE18C9DF0018D9DF00D1124E35E67
:1023F000F74C8781811103C08E2D0E94A8068E2D77
:102400000E9496020C948920F601EE55FD4D8081C4
:102410008061808385FF18C08DE18C9DF0018D9DCA
:10242000F00D1124E35EF74C8681882319F08E2D80
:102430000E94A8060E949A048E2D0E9496020E9475
:10244000F3030E94470319C08DE18C9DF0018D9D1F
:10245000F00D1124E35EF74C8681882371F08DE145
:102460008C9DF0018D9DF00D1124E35EF74C87816A
:10247000811103C08E2D0E94A806F601EE55FD4D78
:1024800080818E7F808381E0809371220C948920EB
:10249000012B09F077C0F601EE55FD4D808185FDD9
:1024A00002C00C9489208E2D0E943A038430B8F427
:1024B000E0918422A1E0AE0FF0E0E953FC4D92ECF4
:1024C0009083E1E0EA0FB0E0A953BC4D8C9381E02A
:1024D0008E0F80938422F0E0E953FC4D10820E941D
:1024E0009A048E2D0E949602F601EE55FD4D8081D4
:1024F000837F80839091902B9923B9F1F601EE0FA1
:10250000FF1FEE0FFF1FEE0FFF1FE35FF44D9181E2
:1025100099235CF585FD26C028C0812F0E943A03CF
:102520008430B8F4E0918422A1E0AE0FF0E0E953EA
:10253000FC4D92EC9083E1E0EA0FB0E0A953BC4D72
:102540008C9381E08E0F80938422F0E0E953FC4D60
:102550001082E12FF0E0EE55FD4D8081837F808376
:102560001F5F01C010E01031C0F20E94AB08F601FD
:10257000EE55FD4D80818F7E808381E080937122B6
:102580000C9489200E949A048E2D0E949602F601D6
:10259000EE55FD4D80818061808381E080937122C2
:1025A0000C94892080912521813009F02DC1012BC7
:1025B00011F00C9489208091942B882311F40C94B1
:1025C000892081E1E6EDF0E2DE01119601900D92A5
:1025D0008A95E1F70E2D10E090918322292F30E0AB
:1025E0008DE1809FF001819FF00D1124E35EF74C97
:1025F000E20FF31F8081882361F08DE1809FF0015D
:10260000819FF00D1124E35EF74CE20FF31F10825F
:102610000CC08DE1809FF001819FF00D1124E35EDD
:10262000F74CE20FF31F81E08083F801EE58FD4D77
:102630004081423029F5892E912CF4013297EA31FC
:10264000F105F0F48827E957FE4F8F4F0C94882945
:102650008DE1809FF001819FF00D1124E35EF74C26
:10266000E20FF31F10820CC08DE1809FF001819F6B
:10267000F00D1124E35EF74CE20FF31F81E080833D
:10268000892F90E0FC013397E631F105B8F58827F2
:10269000EF55FE4F8F4F0C94882960E08F2D0E94DC
:1026A000FE058F2D0E949602F39401C0F12CFFE0ED
:1026B000FF1598F723C00E94F30320C00E94F30384
:1026C0000E9447031BC0413089F40DC08E1549F0AC
:1026D0005DE1859FF0011124E35EF74CE20FF31FEB
:1026E00010828F5F01C080E0803180F30E94470339
:1026F00005C00E94470302C00E949A04C8010196C7
:102700006AE070E00E947429605D6887805D898757
:10271000809183228930F9F49DE1909FF001919F8F
:10272000F00D1124E35EF74CE80FF11D8081882342
:1027300049F080E58C8785E78D878CE68E8783E777
:102740008F8723C083E48C878FE68D878EE68E8704
:1027500084E78F871AC09DE1909FF001919FF00D53
:102760001124E35EF74CE80FF11D8081882339F0D6
:1027700089E58C8785E68D8783E78E8706C080E2B2
:102780008C878EE48D878FE68E876FE270E280E023
:1027900090E00E943922BE016F5F7F4F81E090E0A0
:1027A0000E943922809183220E941703A0918422E3
:1027B000E1E0EA0FB0E0A953BC4D83E98C9381E0DE
:1027C0008E0F80938422F0E0E953FC4DE08280E09C
:1027D00017C0E091842291E09E0F90938422F0E054
:1027E0009DE1909FD001919FB00D1124A35EB74C45
:1027F000A80FB11D9C91E953FC4D9F7790838F5F8B
:102800008D3138F30C948920CE2CD12CF601EE5862
:10281000FD4D8081813029F0823009F499C00C94FB
:102820008920012B11F00C948920F601EE55FD4D05
:10283000808182FF45C002EA12E2F601EE55FD4DAD
:10284000837F80838E2D0E94A8060E94F303F801E7
:102850008089877F808B80E02BC0282F30E0F901B2
:10286000EE55FD4D908193FF22C0F901EE0FFF1F41
:10287000EE0FFF1FEE0FFF1FE35FF44D4781442370
:10288000B4F44DE1429FF001439FF00D1124E35E4B
:10289000F74C2685222359F094FF09C09091922B82
:1028A000992329F0E2EAF2E290899860908B8F5F99
:1028B000803198F20E94410381E08093712244C0EC
:1028C00002EA12E2F601EE55FD4D8C6080838E2DFA
:1028D0000E94A8060E94F303F8018089877F808BFD
:1028E00080E02BC0282F30E0F901EE55FD4D90819E
:1028F00093FF22C0F901EE0FFF1FEE0FFF1FEE0F37
:10290000FF1FE35FF44D47814423B4F44DE1429F40
:10291000F001439FF00D1124E35EF74C268522233E
:1029200059F094FF09C09091922B992329F0E2EA83
:10293000F2E290899860908B8F5F803198F20E94CC
:10294000410381E0809371220E94AB080C9489209E
:10295000012B11F00C948920F601EE0FFF1FEE0FF2
:10296000FF1FEE0FFF1FE35FF44D8181882314F4F6
:102970000C9489208E2D0E943A03F601EE55FD4DF0
:10298000908192FF24C0F601EE55FD4D937F908318
:102990008430B8F4E0918422A1E0AE0FF0E0E95376
:1029A000FC4D92EC9083E1E0EA0FB0E0A953BC4DFE
:1029B0008C9381E08E0F80938422F0E0E953FC4DEC
:1029C00010820E94410381E08093712259C0F60178
:1029D000EE55FD4D9B629083F601EB5EFE4D9AE055
:1029E0009083A0918422E1E0EA0FB0E0A953BC4DAE
:1029F00092E89C93A1E0AE0FF0E0E953FC4DE08239
:102A0000E1E0EA0FE0938422B0E0A953BC4D91E0ED
:102A10009C938430B0F4A1E0AE0FF0E0E953FC4D9C
:102A200090EC9083E1E0EA0FB0E0A953BC4D8C93A9
:102A300091E09E0F90938422F0E0E953FC4D91E0E9
:102A400090838430C0F4E0918422A1E0AE0FF0E0E6
:102A5000E953FC4D92EC9083E1E0EA0FB0E0A9531A
:102A6000BC4D8C9381E08E0F80938422F0E0E9537B
:102A7000FC4D81E080830E94410381E080937122BC
:102A80000E94AB080C948920CE2CD12CF601EE5874
:102A9000FD4D8081813029F0823009F4C4C00C944E
:102AA00089208DE18C9DF0018D9DF00D1124E35E58
:102AB000F74C848D882359F1F601EE55FD4D808148
:102AC00081628F7E8083012B51F461E08E2D0E9404
:102AD000FE05F601EA56F44D81E0808313C08DE1D6
:102AE0008C9DF0018D9DF00D1124E35EF74C8185E6
:102AF000811108C060E08E2D0E94FE05F601EA56A5
:102B0000F44D108281E0809371220C948920012B76
:102B100011F00C948920F601EE55FD4D808185FF62
:102B200027C08F018E7D80838E2D0E94A806F8011C
:102B3000808180618083F601EE0FFF1FEE0FFF1F83
:102B4000EE0FFF1FE35FF44D8181882364F48E2D27
:102B50000E94A8060E94F3030E9447038E2D0E9444
:102B600096020E949A0481E0809371220C9489203D
:102B7000F601EE55FD4D806280838E2D0E94A806E1
:102B8000F601EE0FFF1FEE0FFF1FEE0FFF1FE35FBB
:102B9000F44D818188230CF041C086010E551D4DF6
:102BA000F8018081816080838E2D0E94A806F80143
:102BB0008081837F80839091902B9923D9F0F601B7
:102BC000EE0FFF1FEE0FFF1FEE0FFF1FE35FF44D31
:102BD000918199237CF485FD0AC00CC0E82FF0E0B8
:102BE000EE55FD4D9081937F90838F5F01C080E013
:102BF0008031A0F30E94AB088E2D0E9496020E94A5
:102C00009A040E94F3030E9447038E2D0E94A80697
:102C1000F601EE55FD4D80818F7E808381E08093AB
:102C200071220C948920012B11F00C9489208E2D97
:102C30000E943A03182FF601EE55FD4D808185FF65
:102C400086C08E2D0E943A03182F843050F5A09133
:102C50008422E1E0EA0FB0E0A953BC4D82EC8C93F2
:102C6000A1E0AE0FF0E0E953FC4D1083E1E0EA0F84
:102C7000B0E0A953BC4D1C92A1E0AE0FF0E0E953C7
:102C8000FC4D83EC8083E1E0EA0FB0E0A953BC4D3A
:102C90001C9381E08E0F80938422F0E0E953FC4D79
:102CA0001082F601EE55FD4D80818F7D8061827F1F
:102CB0008083F601EC54FD4D8AE08083E09184220C
:102CC000A1E0AE0FF0E0E953FC4D83E88083E1E042
:102CD000EA0FB0E0A953BC4DEC9281E08E0F8093D7
:102CE0008422F0E0E953FC4D81E080830E94AB0830
:102CF000F601EE0FFF1FEE0FFF1FEE0FFF1FE35F4A
:102D0000F44D818188232CF48E2D0E9496020E941E
:102D10009A041430B8F4E0918422A1E0AE0FF0E000
:102D2000E953FC4D80EC8083E1E0EA0FB0E0A95369
:102D3000BC4D1C9381E08E0F80938422F0E0E95318
:102D4000FC4D108281E0809371220C948920F60161
:102D5000EE55FD4D83628083E0918422A1E0AE0FA9
:102D6000F0E0E953FC4D82E88083E1E0EA0FB0E057
:102D7000A953BC4DEC9281E08E0F80938422F0E049
:102D8000E953FC4D81E08083F601EE0FFF1FEE0F4B
:102D9000FF1FEE0FFF1FE35FF44D818188230CF0CE
:102DA00069C08E2D0E943A038430B8F4E0918422E9
:102DB000A1E0AE0FF0E0E953FC4D92EC9083E1E02E
:102DC000EA0FB0E0A953BC4D8C9381E08E0F809345
:102DD0008422F0E0E953FC4D1082F601EE55FD4DE2
:102DE0008081837F80839AE0F601ED56F24D9083D7
:102DF0009091902B9923B9F1F601EE0FFF1FEE0F82
:102E0000FF1FEE0FFF1FE35FF44D918199235CF5E7
:102E100085FD26C028C0802F0E943A038430B8F474
:102E2000E0918422A1E0AE0FF0E0E953FC4D92EC7A
:102E30009083E1E0EA0FB0E0A953BC4D8C9381E0B0
:102E40008E0F80938422F0E0E953FC4D1082E02F36
:102E5000F0E0EE55FD4D8081837F80830F5F01C0E0
:102E600000E00031C0F20E94AB088E2D0E94960255
:102E70000E949A041430C0F4E0918422A1E0AE0FC5
:102E8000F0E0E953FC4D80EC8083E1E0EA0FB0E034
:102E9000A953BC4D1C9381E08E0F80938422F0E0F7
:102EA000E953FC4D81E0808381E0809371220C9492
:102EB00089208E2D0E94A806E8E1FAE3138212828F
:102EC000118210828E2D0E9496020E94F3030E94AE
:102ED00047030E949A040C948920CE2CD12CF60131
:102EE000EE58FD4D8081813021F0823061F10C94EB
:102EF0008920F601EE0FFF1FEE0FFF1FEE0FFF1FE1
:102F0000E35FF44D8781882354F0E2EAF2E280899E
:102F1000877F808B0E94410381E0809371228E2DF8
:102F20000E94A806E8E1FAE313821282118210825D
:102F30008E2D0E9496020E94F3030E9447030E9476
:102F40009A040C9489208E2D0E943A03012B09F5D6
:102F5000F601EE55FD4D9081996090838430E8F53F
:102F6000E0918422A1E0AE0FF0E0E953FC4D91EC3A
:102F70009083E1E0EA0FB0E0A953BC4D8C9381E06F
:102F80008E0F80938422F0E0E953FC4D81E0808332
:102F900024C0F601EE55FD4D908191FD05C0F6016E
:102FA000EE55FD4D967F90838430B8F4E0918422F5
:102FB000A1E0AE0FF0E0E953FC4D91EC9083E1E02D
:102FC000EA0FB0E0A953BC4D8C9381E08E0F809343
:102FD0008422F0E0E953FC4D108281E0809371225D
:102FE0000C9489206FE270E280E090E00E94392228
:102FF000012B11F00C94892080912521882309F45C
:10300000A1C08130F1F419C0842F90E0FDE16F9FE1
:1030100090011124F901E35BF94CE80FF91F50818D
:10302000235E374CF901E80FF91F50834F5F01C051
:1030300040E04D3148F36F5F01C060E06031C0F3A4
:1030400012C0823081F40CC0822F90E0FC01E85B5A
:10305000F94C3081FC01E057F44D30832F5F01C003
:1030600020E0253088F3109225211092832261E51B
:1030700070E280E090E00E94392264E670E281E034
:1030800090E00E9439226FE270E280E090E00E94BE
:1030900039226091832231E1639FB0011124685D80
:1030A0007D4D81E090E00E943922E8E1FAE323813E
:1030B0008DEC289F912D112496959695969530E349
:1030C000390F3983990F392F330F330F930F291B82
:1030D000205D2A834AE34B832281289F912D11246E
:1030E00096959695969530E3390F3C83990F392F35
:1030F000330F330F930F291B205D2D834E83918156
:10310000989F812D112486958695869520E3280F1A
:103110002F83880F282F220F220F820F981B905D7C
:103120009887198665E770E280E090E00E94392276
:10313000BE016F5F7F4F81E090E00E9439220E94C4
:103140009007E7C780918322811107C0E8E1FAE385
:103150001382128211821082DCC70E94AE206FE2BD
:1031600070E280E090E00E94392261E570E280E048
:1031700090E00E94392264E670E281E090E00E94D3
:1031800039226FE270E280E090E00E943922609183
:10319000832251E1659FB0011124685D7D4D81E07E
:1031A00090E00E943922E8E1FAE323818DEC289F28
:1031B000912D112496959695969530E3390F398384
:1031C000990F392F330F330F930F291B205D2A835B
:1031D0004AE34B832281289F912D11249695969541
:1031E000969530E3390F3C83990F392F330F330F06
:1031F000930F291B205D2D834E839181989F812DF4
:10320000112486958695869520E3280F2F83880FB5
:10321000282F220F220F820F981B905D9887198606
:1032200065E770E280E090E00E943922BE016F5FA6
:103230007F4F81E090E00E9439220E94900769C789
:10324000012B09F066C780912521882321F0833066
:1032500009F4B7C0A9C280918322813059F138F0B6
:10326000823009F45EC0833009F491C052C7E8E1AE
:10327000FAE3138212821182108281E080931D3A58
:1032800048C7842F90E0EDE16E9F90011124F90171
:10329000E35EF74CE80FF91F5081235B394CF901CD
:1032A000E80FF91F50834F5F01C040E04D3148F3F4
:1032B0006F5F01C060E06031C0F381E08093252141
:1032C0001092832261E570E280E090E00E94392252
:1032D00060918322F1E16F9FB00111246A55744D12
:1032E00081E090E00E9439226FE270E280E090E09D
:1032F0000E94392267E770E281E090E00E94392263
:10330000809183220E94170304C7822F90E0FC0162
:10331000E057F44D3081FC01E85BF94C30832F5FBE
:1033200001C020E0253088F382E0809325211092AF
:10333000832261E570E280E090E00E943922609192
:10334000832231E1639FB001112469537B4D81E0F9
:1033500090E00E9439226FE270E280E090E00E94EB
:103360003922E0918322F0E0E057F44D80818823F8
:1033700039F068E870E281E090E00E943922C9C625
:1033800069E970E281E090E00E943922C2C683E0E0
:10339000809325211092832261E570E280E090E025
:1033A0000E9439226091832251E1659FB00111246E
:1033B0006D55724D81E090E00E9439220E94A62452
:1033C000A8C680918322833009F4A8C0843009F410
:1033D00072C1813009F07BC120E142E752E260E036
:1033E00070E080E70E949A206894EE24E4F8F12CC3
:1033F00010E00FC08DE1189FA0011124435E574CCF
:103400002DE1B70180E70E949A209DE1E90EF11CB1
:103410001F5F103178F325E040E95BE2B70180E7F8
:103420000E949A2040E050C0242F30E0F901EE586D
:10343000FD4D80818150823060F5A0918422E1E0D1
:10344000EA0FB0E0A953BC4D83E98C9381E08E0F65
:1034500080938422F0E0E953FC4D408380E017C064
:10346000E091842291E09E0F90938422F0E09DE110
:10347000929FD001939FB00D1124A35EB74CA80F6B
:10348000B11D9C91E953FC4D9F7790838F5F8D31E7
:1034900038F380918422E091952B8E1781F08091F2
:1034A0006C22882361F081E08E0F8093952BF0E0F1
:1034B000E953FC4D80818093A00A10926C22809188
:1034C0006C228823E1F34F5F403108F4ADCFA09127
:1034D0008422E1E0EA0FB0E0A953BC4D84E98C936B
:1034E00081E08E0F80938422F0E0E953FC4D10823E
:1034F00080E011C0E091842291E09E0F909384229D
:10350000F0E0A82FB0E0A057B44D9C91E953FC4DDA
:103510009F7790838F5F853068F3D9C020E1AE013B
:103520004F5F5F4F60E070E080E50E949A2040E0CE
:1035300020E010C0822F90E0FC01EE58FD4D30815C
:10354000E1E0F0E0EC0FFD1FE80FF91F8081381378
:1035500041E02F5F203170F3442389F09BC0EDE1FF
:103560001E9FA0011124435E574C2DE1B70180E559
:103570000E949A20FDE1EF0EF11C1F5F05C06894C8
:10358000EE24E4F8F12C10E0103148F325E040E996
:103590005BE2B70180E50E949A2030E051C0432FE2
:1035A00050E0FA01EE58FD4D80818150823068F57F
:1035B000A0918422E1E0EA0FB0E0A953BC4D83E979
:1035C0008C9381E08E0F80938422F0E0E953FC4DD0
:1035D000308390E018C08DE1849FF001859FF00D4D
:1035E0001124E35EF74CE90FF11D80818170808327
:1035F000E091842221E02E0F20938422F0E0E95311
:10360000FC4D80839F5F9D3130F380918422E09157
:10361000952B8E1781F080916C22882361F081E0D8
:103620008E0F8093952BF0E0E953FC4D80818093C1
:10363000A00A10926C2280916C228823E1F33F5FF4
:10364000303108F4ACCFA0918422E1E0EA0FB0E081
:10365000A953BC4D84E98C9381E08E0F8093842222
:10366000F0E0E953FC4D108280E011C0E09184222B
:1036700091E09E0F90938422F0E0A82FB0E0A05735
:10368000B44D9C91E953FC4D9F7790838F5F8530BB
:1036900068F31DC06FE270E280E090E00E94392282
:1036A0006AEA70E281E090E00E94392284E690E0CC
:1036B0000E94450E0CC061E570E280E090E00E943F
:1036C00039226BEB70E281E090E00E943922109287
:1036D00025211092832261E570E280E090E00E9453
:1036E000392264E670E281E090E00E9439226FE2C4
:1036F00070E280E090E00E9439226091832231E103
:10370000639FB0011124685D7D4D81E090E00E94CF
:103710003922E8E1FAE323818DEC289F912D1124D1
:1037200096959695969530E3390F3983990F392FF1
:10373000330F330F930F291B205D2A834AE34B83FA
:103740002281289F912D112496959695969530E388
:10375000390F3C83990F392F330F330F930F291BE8
:10376000205D2D834E839181989F812D1124869514
:103770008695869520E3280F2F83880F282F220F08
:10378000220F820F981B905D9887198665E770E27B
:1037900080E090E00E943922BE016F5F7F4F81E0A0
:1037A00090E00E943922B5C4109225211092832204
:1037B00061E570E280E090E00E94392264E670E208
:1037C00081E090E00E9439226FE270E280E090E0B8
:1037D0000E9439226091832251E1659FB00111243A
:1037E000685D7D4D81E090E00E943922E8E1FAE3D6
:1037F00023818DEC289F912D112496959695969571
:1038000030E3390F3983990F392F330F330F930F6B
:10381000291B205D2A834AE34B832281289F912D17
:10382000112496959695969530E3390F3C83990F20
:10383000392F330F330F930F291B205D2D834E83B8
:103840009181989F812D112486958695869520E3F8
:10385000280F2F83880F282F220F220F820F981BEB
:10386000905D9887198665E770E280E090E00E949D
:103870003922BE016F5F7F4F81E090E00E943922C4
:103880000E94900746C4012B09F043C48091252172
:10389000823009F03EC48091942B882309F439C406
:1038A000E0918322F0E0E057F44D81E080836FE205
:1038B00070E280E090E00E94392268E870E281E0E6
:1038C00090E00E943922A0918422E1E0EA0FB0E06A
:1038D000A953BC4D84E98C9381E08E0F80938422A0
:1038E000F0E0E953FC4D108280E011C0E0918422A9
:1038F00091E09E0F90938422F0E0A82FB0E0A057B3
:10390000B44D9C91E953FC4D9F7790838F5F853038
:1039100068F3FFC3012B09F0FCC38091832281501F
:103920008093832290912521913001F138F09230DB
:1039300009F444C0933009F474C0EBC3843018F028
:1039400083E0809383226FE270E280E090E00E9447
:1039500039226091832281E1689FB0011124685D62
:103960007D4D81E090E00E943922D3C38D3118F063
:103970008CE18093832261E570E280E090E00E9418
:1039800039226091832291E1699FB00111246A5527
:10399000744D81E090E00E9439226FE270E280E095
:1039A00090E00E94392267E770E281E090E00E9497
:1039B0003922809183220E941703ABC3843018F010
:1039C00083E08093832261E570E280E090E00E94D2
:1039D000392260918322E1E16E9FB0011124695385
:1039E0007B4D81E090E00E9439226FE270E280E03E
:1039F00090E00E943922E0918322F0E0E057F44DFC
:103A00008081882339F068E870E281E090E00E94CC
:103A100039227FC369E970E281E090E00E94392297
:103A200078C3863018F085E08093832280916F22DE
:103A3000811107C080918322843019F482E0809341
:103A4000832261E570E280E090E00E94392260917B
:103A50008322F1E16F9FB00111246D55724D81E019
:103A600090E00E94392280918322882319F08530CA
:103A700021F010C00E94A6244CC36FE270E280E0E7
:103A800090E00E94392260E070E281E090E00E94C4
:103A900039223FC36FE270E280E090E00E94392259
:103AA00065EC70E281E090E00E94392232C3012B84
:103AB00009F02FC3809183228F5F8093832290919E
:103AC00025219130F9F038F0923009F442C093305A
:103AD00009F471C01EC3843010F0109283226FE28B
:103AE00070E280E090E00E9439226091832231E10F
:103AF000639FB0011124685D7D4D81E090E00E94DC
:103B0000392207C38D3110F01092832261E570E2F3
:103B100080E090E00E9439226091832251E1659F0C
:103B2000B00111246A55744D81E090E00E94392261
:103B30006FE270E280E090E00E94392267E770E275
:103B400081E090E00E943922809183220E94170335
:103B5000E0C2843010F01092832261E570E280E0D0
:103B600090E00E9439226091832281E1689FB00138
:103B7000112469537B4D81E090E00E9439226FE26D
:103B800070E280E090E00E943922E0918322F0E030
:103B9000E057F44D8081882339F068E870E281E0D5
:103BA00090E00E943922B5C269E970E281E090E0BC
:103BB0000E943922AEC2863010F01092832280918A
:103BC0006F22811107C080918322833019F485E030
:103BD0008093832261E570E280E090E00E943922C8
:103BE0006091832291E1699FB00111246D55724D5E
:103BF00081E090E00E94392280918322882319F08D
:103C0000853021F010C00E94A62483C26FE270E2CA
:103C100080E090E00E94392260E070E281E090E074
:103C20000E94392276C26FE270E280E090E00E944A
:103C3000392265EC70E281E090E00E94392269C28D
:103C4000012B09F066C280912521823009F061C202
:103C50008091942B882309F45CC2E0918322F0E0E8
:103C6000E057F44D10826FE270E280E090E00E9435
:103C7000392269E970E281E090E00E943922809166
:103C80008322823018F0823021F033C00E94AB08CA
:103C900030C0E2EAF2E28089877F808B4E2D50E0CF
:103CA000FA01EE0FFF1FEE0FFF1FEE0FFF1FE35F86
:103CB000F44D97819923C4F49DE1949FF001959F61
:103CC000F00D1124E35EF74C9685992369F0FA0113
:103CD000EE55FD4D908194FF07C09091922B992352
:103CE00019F088608093B2220E94410381E08093A2
:103CF0007122A0918422E1E0EA0FB0E0A953BC4D0B
:103D000084E98C9381E08E0F80938422F0E0E95364
:103D1000FC4D108280E011C0E091842291E09E0F62
:103D200090938422F0E0A82FB0E0A057B44D9C916E
:103D3000E953FC4D9F7790838F5F853068F3E9C12D
:103D4000812F90E0FC01EE55FD4D2081237F2083E3
:103D5000FC01EE58FD4D80818230E1F4812F0E94FC
:103D60003A038430B8F4E0918422A1E0AE0FF0E091
:103D7000E953FC4D92EC9083E1E0EA0FB0E0A953E7
:103D8000BC4D8C9381E08E0F80938422F0E0E95348
:103D9000FC4D10821F5F01C010E0103188F20E94BC
:103DA000AB080E94F3030E944703812F0E94A806DC
:103DB00081E080937122ADC1012B09F08DC0E2EA50
:103DC000F2E280898F7B808B0E94900785E090E0F3
:103DD0000E94450E85E090E00E94450E81E08093B0
:103DE0006F2260E070E080E50E94992080916F2250
:103DF000882309F46DC083E080932521809383227A
:103E000061E570E280E090E00E94392260918322B7
:103E1000E1E16E9FB00111246D55724D81E090E09B
:103E20000E9439226FE270E280E090E00E94392225
:103E300065EC70E281E090E00E943922E0918422FA
:103E4000A1E0AE0FF0E0E953FC4D88E98083E1E0AA
:103E5000EA0FB0E0A953BC4D1C9281E08E0F809315
:103E60008422F0E0E953FC4D81E080838091942B23
:103E700080930C2721E044E95BE264EE71E080E589
:103E80000E949A20A0918422E1E0EA0FB0E0A953B9
:103E9000BC4D84E98C9381E08E0F80938422F0E006
:103EA000E953FC4D108280E011C0E091842291E042
:103EB0009E0F90938422F0E0A82FB0E0A057B44D5D
:103EC0009C91E953FC4D9F7790838F5F853068F319
:103ED00081E0809371221DC110926F22E0918422B3
:103EE000A1E0AE0FF0E0E953FC4D88E98083E1E00A
:103EF000EA0FB0E0A953BC4D1C92A1E0AE0FF0E078
:103F0000E953FC4D108280910C278093942BE1E0C3
:103F1000EA0FB0E0A953BC4D84E98C9381E08E0F89
:103F200080938422F0E0E953FC4D108280E011C0C0
:103F3000E091842291E09E0F90938422F0E0A82FDC
:103F4000B0E0A057B44D9C91E953FC4D9F7790830E
:103F50008F5F853068F3E2EAF2E280898064808BCB
:103F600081E08093712280912521833009F0D1C0B6
:103F7000809183228350823008F0CBC0109225219B
:103F80001092832261E570E280E090E00E94392285
:103F900064E670E281E090E00E9439226FE270E214
:103FA00080E090E00E94392260918322F1E16F9FCE
:103FB000B0011124685D7D4D81E090E00E943922BE
:103FC000E8E1FAE323818DEC289F912D1124969549
:103FD0009695969530E3390F3983990F392F330F22
:103FE000330F930F291B922F905D9A834AE34B83E3
:103FF0002281289F912D112496959695969530E3D0
:10400000390F3C83990F392F330F330F930F291B2F
:10401000922F905D9D834E839181989F812D1124D5
:1040200086958695869520E3280F2F83880F282F65
:10403000220F220F820F981B892F805D8887198697
:1040400065E770E280E090E00E943922BE016F5F78
:104050007F4F81E090E00E9439225BC08E2D0E944C
:104060003A034E2D50E0FA01EE55FD4D908195FF3B
:1040700050C0012B39F5FA01EE55FD4D906190834A
:10408000FA01ED56F24D10828430C0F4E0918422A2
:10409000A1E0AE0FF0E0E953FC4D93EC9083E1E03A
:1040A000EA0FB0E0A953BC4D8C9381E08E0F809352
:1040B0008422F0E0E953FC4D81E0808381E080932D
:1040C000712227C0FA01ED56F24D2081211121C045
:1040D000FA01EE55FD4D9F7E90838430B8F4E09157
:1040E0008422A1E0AE0FF0E0E953FC4D93EC908305
:1040F000E1E0EA0FB0E0A953BC4D8C9381E08E0F54
:1041000080938422F0E0E953FC4D108281E080939B
:1041100071226196CDBFDEBFDF91CF911F910F91CC
:10412000FF90EF90DF90CF90BF90AF909F908F90D7
:104130000895089508951092E8201092E92005C08E
:1041400002968093E8209093E9208091E820909156
:10415000E920843F21E0920798F308959F92AF925F
:10416000BF92CF92DF92EF92FF920F931F93CF9364
:10417000DF938FE090E00E949B20C6E0D6E0689439
:10418000FF24F5F8F8826894DD24D6F8D882689484
:10419000EE24E3F8E8826894CC24C4F8C8826894DA
:1041A000992492F8988205E016E06894AA24A1F870
:1041B000F801A082BB24B394B082F082F88288E731
:1041C00090E00E949B20D882E882C8829882F80101
:1041D000A082B082F08288E290E00E949B20F88268
:1041E000D882E882C8829882F801A082B082F082E8
:1041F00088E290E00E949B20F88288E290E00E9492
:104200009B20D882E882C8829882F801A082B88276
:10421000F08288E290E00E949B20F882D882E882B7
:10422000C8829882F801A082B882F08288E290E089
:104230000E949B20F882D882E882F801C08298828E
:10424000A882B882F08288E290E00E949B20F882E7
:10425000F801C082D882E082F08288E290E00E9479
:104260009B20F882F801F0828FE00AC0C0E2C09380
:10427000060688E290E00E949B20C09305068D2FE1
:10428000DFEFD80F8111F2CFC6E0D6E06894FF24AB
:10429000F5F8F8826894DD24D6F8D8826894EE2484
:1042A000E3F8E8826894CC24C4F8C882689499241E
:1042B00092F898826894AA24A1F8A882BB24B394A7
:1042C000B88205E016E0F801F08288E290E00E94F2
:1042D0009B20F882D882E882F801C0829082A8826E
:1042E000B882F08288E290E00E949B20F882F80178
:1042F000C082D882E082F08288E290E00E949B2017
:10430000F882F801F0828FE00AC0C0E2C09306068E
:1043100088E290E00E949B20C09305068D2FDFEF7E
:10432000D80F8111F2CFC6E0D6E010E2188368946E
:10433000DD24D6F8D88208E008836894CC24C4F839
:10434000C8826894992492F898826894AA24A1F863
:10435000A882BB24B394B8820F2EF5E0EF2EF6E0CE
:10436000FF2EF02DF701108388E290E00E949B2041
:104370001883D8820883C8829882A882F701B08205
:10438000108388E290E00E949B201883F701C0828E
:10439000D8820083108388E290E00E949B201883DB
:1043A000F70110838FE00AC0C0E2C093060688E2DE
:1043B00090E00E949B20C09305068D2FDFEFD80F61
:1043C0008111F2CFC6E0D6E06894FF24F5F8F882B8
:1043D0006894DD24D6F8D8826894EE24E3F8E88265
:1043E0006894CC24C4F8C8826894992492F898827E
:1043F0006894AA24A1F8A882BB24B394B88205E0EB
:1044000016E0F801F08288E290E00E949B20F8829A
:10441000D882E882C882F8019082A082B882F082B5
:1044200088E290E00E949B20F882F801C082D88246
:10443000E082F0828FE00AC0C0E2C093060688E204
:1044400090E00E949B20C09305068D2FDFEFD80FD0
:104450008111F2CF80E280930606DF91CF911F9108
:104460000F91FF90EF90DF90CF90BF90AF909F9013
:104470000895AF92BF92CF92DF92EF92FF920F9387
:104480001F93CF93DF938C017B01D12C88C0A6E0D2
:10449000B6E080E48C93E5E0F6E088E0808380E29B
:1044A00080838C938083888184FF04C091E0909303
:1044B000050603C091E09093060685FF04C092E0D4
:1044C0009093050603C092E09093060686FF04C011
:1044D00094E09093050603C094E090930606882329
:1044E00024F480E18093050603C080E180930606F2
:1044F00088E290E00E949B200115110521F480E4E0
:104500008093060606C00130110519F480E48093FB
:1045100005060F2EF6E0AF2EBA2CF02D88E0F5013F
:1045200080836894CC24C5F8C092050688E290E0A8
:104530000E949B20F501C082888180FF04C091E029
:104540009093050603C091E09093060681FF04C096
:1045500092E09093050603C092E09093060682FFD6
:1045600004C094E09093050603C094E0909306067F
:1045700083FF04C080E18093050603C080E180933F
:10458000060688E290E00E949B20C0E2C0930506E8
:1045900088E290E00E949B20C0930606D394E70136
:1045A000CD0DD11D8881811172CFDF91CF911F91E7
:1045B0000F91FF90EF90DF90CF90BF90AF90089554
:1045C000E6E2F6E084E0808392E0908391E09093CD
:1045D000460698E090838093450610920B2503C011
:1045E0008F5F80930B2580910B258233C8F320E0E9
:1045F0004BC08091E8078370422F50E090E0022E7C
:1046000002C0959587950A94E2F7BC0161707727FF
:1046100080FD1EC0FA01E350F64C80818823C4F06F
:104620008150FA01E350F64C8083882364F5E091D1
:104630008D2B81E08E0F80938D2BF0E0EE0FFF1F0E
:10464000E45FFA4D822F806890E0808391831BC0E5
:10465000672BC9F0FA01E350F64C808188239CF463
:10466000FA01E350F64C81E08083E0918D2B8E0FB0
:1046700080938D2BF0E040685160EE0FFF1FE45FE8
:10468000FA4D408351832F5F283008F4B2CF08954C
:10469000CF93DF93813021F498E09093250603C0F7
:1046A00098E09093260694E09093460650E036C139
:1046B00050FF04C094E09093250603C094E09093CB
:1046C000260651FF04C092E09093250603C092E0B5
:1046D0009093260652FF04C091E09093450603C0D4
:1046E00091E09093460610920B2503C09F5F909334
:1046F0000B2590910B259233C8F39091E80791FF19
:1047000006C09091223A91609093223A05C0909110
:10471000223A9E7F9093223A9091E80790FF06C03C
:104720009091223A92609093223A05C09091223A59
:104730009D7F9093223A9091680693FF06C09091D6
:10474000223A94609093223A05C09091223A9B7F3E
:104750009093223A9091680692FF06C09091223A77
:1047600098609093223A05C09091223A977F909357
:10477000223A90916806992334F49091223A9061FC
:104780009093223A05C09091223A9F7E9093223ACC
:104790009091680696FF06C09091223A906290939D
:1047A000223A05C09091223A9F7D9093223A9091AF
:1047B000680695FF06C09091223A90649093223A41
:1047C00005C09091223A9F7B9093223A909168067F
:1047D00094FF06C09091223A90689093223A05C0C7
:1047E0009091223A9F779093223A10920B2503C022
:1047F0009F5F90930B2590910B259233C8F3642F04
:1048000070E02091223A30E0042E02C035952795C1
:104810000A94E2F7E901C170DD2720FD40C0282F8E
:1048200030E0220F331F220F331F220F331F260FBA
:10483000371FA52FB0E0F901EE0FFF1FEE0FFF1F8E
:10484000EE0FFF1FE35FF44DEA0FFB1F90819923EA
:1048500034F19150F901EE0FFF1FEE0FFF1FEE0F25
:10486000FF1FE35FF44DEA0FFB1F908399230CF0C9
:104870004EC0E0918D2B91E09E0F90938D2BF0E038
:10488000220F331F220F331F220F331FA22BB32BF4
:10489000EE0FFF1FE45FFA4DA083B18338C0CD2B2C
:1048A000B1F1282F30E0220F331F220F331F220FC8
:1048B000331F260F371F652F70E0F901EE0FFF1F22
:1048C000EE0FFF1FEE0FFF1FE35FF44DE60FF71F24
:1048D00090819923E4F4220F331F220F331F220FFC
:1048E000331FF901E35FF44DE60FF71F91E090836A
:1048F000E0918D2B9E0F90938D2BF0E03160262B55
:10490000372BEE0FFF1FE45FFA4D208331834F5F9B
:1049100001C040E0483008F4CBCE5F5F5830C8F3A8
:10492000DF91CF9108950E94E02210920B2503C0E1
:104930008F5F80930B2580910B258233C8F380E035
:104940000E94482381E00E9448230895CF93DF937B
:10495000CDB7DEB76197CDBFDEBF83E5898384E73E
:104960008A838DE48B838FE68C8384E68D838AE350
:104970008E832091C4222A3058F08DEC289F812DFF
:104980001124869586958695805D8F8387E001C08A
:1049900086E0E1E0F0E0EC0FFD1FE80FF11D9DEC7B
:1049A000299F912D1124969596959695990F392FBB
:1049B000330F330F930F291B205D208391E0980F55
:1049C000E1E0F0E0EC0FFD1FE90FF11D90E29083B4
:1049D00092E0980FE1E0F0E0EC0FFD1FE90FF11D10
:1049E00094E5908393E0980FE1E0F0E0EC0FFD1F79
:1049F000E90FF11D95E6908394E0980FE1E0F0E077
:104A0000EC0FFD1FE90FF11D9CE6908395E0980FD8
:104A1000E1E0F0E0EC0FFD1FE90FF11D93E690835C
:104A200096E0980FE1E0F0E0EC0FFD1FE90FF11DBB
:104A30009FE6908328E0280F97E0980FE1E0F0E0F0
:104A4000EC0FFD1FE90FF11D9AE390839091C522B1
:104A50009A3088F0E1E0F0E0EC0FFD1FE20FF11D6D
:104A60002DEC929F212D1124269526952695205DCB
:104A7000208329E0280F31E0320FE1E0F0E0EC0F75
:104A8000FD1FE20FF11D8DEC989F812D112486955D
:104A900086958695880F282F220F220F820F981B4C
:104AA000905D9083E1E0F0E0EC0FFD1FE30FF11D5E
:104AB00010826FE270E280E090E00E943922BE0135
:104AC0006F5F7F4F81E090E00E9439226196CDBFF9
:104AD000DEBFDF91CF910895CF93DF93E091262140
:104AE000C1E0CE0FF0E0E85DFE4DE081A1E0AC0F4B
:104AF000D0E0C85DDE4D288181E08A0F80932621B9
:104B0000B0E0A85DBE4DCC918E2F90E0FC01E05846
:104B1000F109E336F10508F00AC28827E954FE4F8F
:104B20008F4F0C948829E0918D2B81E08E0F80931C
:104B30008D2BF0E030E0220F331F220F331F220FA6
:104B4000331F2360EE0FFF1FE45FFA4D2083318394
:104B5000EEC1E0918D2B81E08E0F80938D2BF0E0E4
:104B600030E0220F331F220F331F220F331F22602A
:104B7000EE0FFF1FE45FFA4D20833183D8C181E03F
:104B800080931D3AD4C110921D3AD1C1E8E1FAE3F5
:104B90001382128211821082CAC1422F50E08DE12D
:104BA000849FF001859FF00D1124E35EF74CC083D4
:104BB00081E016C0E091262191E09E0F909326217E
:104BC000F0E0E85DFE4D90813DE1349FF001359FBE
:104BD000F00D1124E35EF74CE80FF11D90838F5F19
:104BE0008D3140F3A4C1C093902B81E011C0282FD8
:104BF00030E0E091262191E09E0F90932621F0E095
:104C0000E85DFE4D9081F901E057F44D90838F5F90
:104C1000853068F38CC1A0918422E1E0EA0FB0E016
:104C2000A953BC4D8AE98C9381E08E0F8093842236
:104C3000F0E0E953FC4D108280E011C0E091842245
:104C400091E09E0F90938422F0E0A82FB0E0A05056
:104C5000B04E9C91E953FC4D9F7790838F5F8E31CE
:104C600068F365C1A0918422E1E0EA0FB0E0A953A6
:104C7000BC4D83E98C9381E08E0F80938422F0E019
:104C8000E953FC4D208380E015C0E091842291E03F
:104C90009E0F90938422F0E09DE1299FD001112482
:104CA000A35EB74CA80FB11D9C91E953FC4D9F77B3
:104CB00090838F5F8D3148F33AC1A0918422E1E067
:104CC000EA0FB0E0A953BC4D84E98C9381E08E0FCC
:104CD00080938422F0E0E953FC4D108280E011C003
:104CE000E091842291E09E0F90938422F0E0A82F1F
:104CF000B0E0A057B44D9C91E953FC4D9F77908351
:104D00008F5F853068F313C1A0918422E1E0EA0F40
:104D1000B0E0A953BC4D85E98C9381E08E0F809360
:104D20008422F0E0E953FC4D108280E011C0E09154
:104D3000842291E09E0F90938422F0E0A82FB0E0AF
:104D4000AE58BD4D9C91E953FC4D9F7790838F5F8A
:104D5000803168F3ECC020E142E752E260E080E796
:104D60000E94D8280E942A29843021F00E942A29F2
:104D70008F3FC1F780E090E009C0FC01E35EF74C93
:104D80002081FC01E55EFD4C208301968D3191056B
:104D9000A4F3C0E0D0E021E030E02CC091E0C031CD
:104DA000D1050CF090E081E02130310509F080E080
:104DB0008923A1F020E14BE152E360E180E70E940A
:104DC000D8280E942A29843039F00E942A298F3F4E
:104DD000C1F722E030E002C022E030E0C031D1056E
:104DE00044F0FE01E55EFD4C8081FE01E55FFD4C77
:104DF00080832196CD31D1058CF22DE04BE152E339
:104E000060E280E70E94D8280E942A29843021F09D
:104E10000E942A298F3FC1F725E040E95BE26DE25D
:104E200080E70E94D8280E942A29843021F00E941D
:104E30002A298F3FC1F71092A33A1092A43A05C0D5
:104E400001968093A33A9093A43A8091A33A9091CB
:104E5000A43A883E2DEF920798F369C0CC2309F459
:104E600066C0822F0E94A408E0918D2B91E09E0FD6
:104E700090938D2BF0E090E0880F991F880F991F79
:104E8000880F991F8360EE0FFF1FE45FFA4D808348
:104E900091834DC0822F0E94A408CC23B9F0E091E9
:104EA0008D2B91E09E0F90938D2BF0E090E0880F7A
:104EB000991F880F991F880F991F87689260EE0FBE
:104EC000FF1FE45FFA4D8083918331C0E0918D2B09
:104ED00091E09E0F90938D2BF0E090E0880F991F4A
:104EE000880F991F880F991F87689360EE0FFF1F27
:104EF000E45FFA4D808391831AC0CC23C1F0822FE6
:104F00000E94A408E0918D2B91E09E0F90938D2B31
:104F1000F0E090E0880F991F880F991F880F991F64
:104F20008260EE0FFF1FE45FFA4D80839183DF9173
:104F3000CF910895F89488E08093850683E080936C
:104F4000A50AE0EAFAE08381807C8862838382E6B6
:104F5000868384E987838481807E886184837894D2
:104F600008951F920F920FB60F92112408B60F9258
:104F700018BE09B60F9219BE0BB60F921BBE2F9327
:104F80008F939F93AF93BF93EF93FF938091A00A6A
:104F90008093B322882394F41092C623833919F0A6
:104FA000843929F008C09FE19093702207C097E0F0
:104FB0009093702203C093E090937022E091C623F7
:104FC00091E09E0F9093C623F0E0EA53FD4D80835D
:104FD00020917022921790F414C0E091173A91E05A
:104FE0009E0F9093173AF0E0A82FB0E0AA53BD4D62
:104FF0009C91E85DFE4D90838F5F01C080E0821739
:1050000060F3FF91EF91BF91AF919F918F912F919D
:105010000F900BBE0F9009BE0F9008BE0F900FBEF1
:105020000F901F9018951F920F920FB60F92112498
:1050300008B60F9218BE0BB60F921BBE8F939F93AC
:10504000EF93FF938091952B90918422891769F0BB
:10505000E82FF0E0E953FC4D9081992334F08F5F05
:105060008093952B9093A00A03C081E080936C22DB
:10507000FF91EF919F918F910F900BBE0F9008BE03
:105080000F900FBE0F901F901895EAEEF0E28FEF91
:1050900084870190F081E02D83E0838308950E944E
:1050A00045280895CF93DF93E091EA20F091EB201B
:1050B000848184FF03C00E94452842C08091F6206D
:1050C000811112C0AAEEB0E213968C9113978783D8
:1050D00016968C91882321F081E08093F62030C0D1
:1050E00082E08093F6202CC0813071F4AAEEB0E209
:1050F00012968C91129790E0880F991F8160868399
:1051000083E01C968C931CC08230D1F4AAEEB0E2EE
:1051100015968C91159714969C911497891758F4AD
:10512000ED01A885B98591E0980F9D83A80FB11D69
:105130008C91878305C083E0838384E08093F6208D
:10514000DF91CF910895CF93DF938091F620833044
:10515000D1F4EAEEF0E2A285B385978181E0890F70
:105160008783A90FB11DC081D1819F819C939681B6
:10517000891718F482E08B8308C087E08B8385E071
:105180008093F62002C00E944528DF91CF910895B8
:105190001092A00488E28093A50488E78093A1047C
:1051A0001092A204E4EAF4E0808181608083089593
:1051B000EAEEF0E212861386168215824087518746
:1051C0002483A0EAB4E0A083B1838283638314863E
:1051D000880F16968C931092A33A1092A43A09C0A5
:1051E0008091A33A9091A43A01968093A33A909328
:1051F000A43A8091A33A9091A43A88399A4380F3D3
:105200000895EAEEF0E21086118614821782428732
:1052100053872683A0EAB4E0A083B18382836383AB
:105220001486880F16968C931092A33A1092A43A83
:1052300009C08091A33A9091A43A01968093A33A31
:105240009093A43A8091A33A9091A43A80329E44DC
:1052500080F308958091F62008951F920F920FB663
:105260000F92112408B60F9218BE09B60F9219BEFC
:105270000BB60F921BBE2F933F934F935F936F9389
:105280007F938F939F93AF93BF93EF93FF93E0919F
:10529000EA20F091EB20848183FF03C00E944F2815
:1052A0000CC086FF03C00E94522807C088231CF44C
:1052B0000E94A32802C00E944528FF91EF91BF9150
:1052C000AF919F918F917F916F915F914F913F919E
:1052D0002F910F900BBE0F9009BE0F9008BE0F903C
:1052E0000FBE0F901F90189597FB072E16F4009491
:1052F00007D077FD09D00E94912907FC05D03EF424
:10530000909581959F4F0895709561957F4F089571
:10531000EE0FFF1F881F8BBF0790F691E02D1BBE7D
:105320001994AA1BBB1B51E107C0AA1FBB1FA617DC
:10533000B70710F0A61BB70B881F991F5A95A9F73E
:0E53400080959095BC01CD010895F894FFCFA3
:10534E00442652204169726C61622076322E3034CE
:10535E00202D2030382F3230303600000000202033
:10536E0020442652204169726C616220202000C0C8
:10537E00002020496E697469616C697A696E6720D4
:10538E002000436F6E666967206368616E676564AF
:10539E000080005365637572697479206F666620AC
:1053AE00202020002020202020202020202020200F
:1053BE0020202020008400546F67676C652062797E
:1053CE002053454C4543540059657320202020201E
:1053DE00202020202020202000204E6F2020202062
:1053EE00202020202020202020004F74686572206D
:1053FE00436F6E6669672E20202000536176696EBA
:10540E00672E2E2E00507265737320456E74657272
:10541E002F45736320004D6F64756C652078783A64
:08542E002078787820200000AE
:00000001FF
